{
  "contractName": "FulcrumTokenBase",
  "abi": [
    {
      "constant": true,
      "inputs": [],
      "name": "name",
      "outputs": [
        {
          "name": "",
          "type": "string"
        }
      ],
      "payable": false,
      "stateMutability": "view",
      "type": "function"
    },
    {
      "constant": false,
      "inputs": [
        {
          "name": "_address",
          "type": "address"
        }
      ],
      "name": "removeAdmin",
      "outputs": [],
      "payable": false,
      "stateMutability": "nonpayable",
      "type": "function"
    },
    {
      "constant": true,
      "inputs": [],
      "name": "totalSupply",
      "outputs": [
        {
          "name": "",
          "type": "uint256"
        }
      ],
      "payable": false,
      "stateMutability": "view",
      "type": "function"
    },
    {
      "constant": true,
      "inputs": [
        {
          "name": "_address",
          "type": "address"
        }
      ],
      "name": "isAdmin",
      "outputs": [
        {
          "name": "",
          "type": "bool"
        }
      ],
      "payable": false,
      "stateMutability": "view",
      "type": "function"
    },
    {
      "constant": true,
      "inputs": [],
      "name": "INITIAL_SUPPLY",
      "outputs": [
        {
          "name": "",
          "type": "uint256"
        }
      ],
      "payable": false,
      "stateMutability": "view",
      "type": "function"
    },
    {
      "constant": true,
      "inputs": [],
      "name": "decimals",
      "outputs": [
        {
          "name": "",
          "type": "uint8"
        }
      ],
      "payable": false,
      "stateMutability": "view",
      "type": "function"
    },
    {
      "constant": true,
      "inputs": [],
      "name": "MAX_SUPPLY",
      "outputs": [
        {
          "name": "",
          "type": "uint256"
        }
      ],
      "payable": false,
      "stateMutability": "view",
      "type": "function"
    },
    {
      "constant": false,
      "inputs": [],
      "name": "unpause",
      "outputs": [],
      "payable": false,
      "stateMutability": "nonpayable",
      "type": "function"
    },
    {
      "constant": true,
      "inputs": [
        {
          "name": "",
          "type": "address"
        }
      ],
      "name": "admins",
      "outputs": [
        {
          "name": "",
          "type": "bool"
        }
      ],
      "payable": false,
      "stateMutability": "view",
      "type": "function"
    },
    {
      "constant": true,
      "inputs": [],
      "name": "paused",
      "outputs": [
        {
          "name": "",
          "type": "bool"
        }
      ],
      "payable": false,
      "stateMutability": "view",
      "type": "function"
    },
    {
      "constant": false,
      "inputs": [
        {
          "name": "_address",
          "type": "address"
        }
      ],
      "name": "addAdmin",
      "outputs": [],
      "payable": false,
      "stateMutability": "nonpayable",
      "type": "function"
    },
    {
      "constant": true,
      "inputs": [
        {
          "name": "_owner",
          "type": "address"
        }
      ],
      "name": "balanceOf",
      "outputs": [
        {
          "name": "",
          "type": "uint256"
        }
      ],
      "payable": false,
      "stateMutability": "view",
      "type": "function"
    },
    {
      "constant": false,
      "inputs": [],
      "name": "renounceOwnership",
      "outputs": [],
      "payable": false,
      "stateMutability": "nonpayable",
      "type": "function"
    },
    {
      "constant": false,
      "inputs": [],
      "name": "pause",
      "outputs": [],
      "payable": false,
      "stateMutability": "nonpayable",
      "type": "function"
    },
    {
      "constant": true,
      "inputs": [],
      "name": "owner",
      "outputs": [
        {
          "name": "",
          "type": "address"
        }
      ],
      "payable": false,
      "stateMutability": "view",
      "type": "function"
    },
    {
      "constant": true,
      "inputs": [],
      "name": "symbol",
      "outputs": [
        {
          "name": "",
          "type": "string"
        }
      ],
      "payable": false,
      "stateMutability": "view",
      "type": "function"
    },
    {
      "constant": true,
      "inputs": [],
      "name": "released",
      "outputs": [
        {
          "name": "",
          "type": "bool"
        }
      ],
      "payable": false,
      "stateMutability": "view",
      "type": "function"
    },
    {
      "constant": false,
      "inputs": [
        {
          "name": "_accounts",
          "type": "address[]"
        }
      ],
      "name": "addManyAdmins",
      "outputs": [],
      "payable": false,
      "stateMutability": "nonpayable",
      "type": "function"
    },
    {
      "constant": true,
      "inputs": [
        {
          "name": "_owner",
          "type": "address"
        },
        {
          "name": "_spender",
          "type": "address"
        }
      ],
      "name": "allowance",
      "outputs": [
        {
          "name": "",
          "type": "uint256"
        }
      ],
      "payable": false,
      "stateMutability": "view",
      "type": "function"
    },
    {
      "constant": false,
      "inputs": [
        {
          "name": "_accounts",
          "type": "address[]"
        }
      ],
      "name": "removeManyAdmins",
      "outputs": [],
      "payable": false,
      "stateMutability": "nonpayable",
      "type": "function"
    },
    {
      "constant": false,
      "inputs": [
        {
          "name": "_newOwner",
          "type": "address"
        }
      ],
      "name": "transferOwnership",
      "outputs": [],
      "payable": false,
      "stateMutability": "nonpayable",
      "type": "function"
    },
    {
      "inputs": [],
      "payable": false,
      "stateMutability": "nonpayable",
      "type": "constructor"
    },
    {
      "anonymous": false,
      "inputs": [
        {
          "indexed": false,
          "name": "_destinations",
          "type": "address[]"
        },
        {
          "indexed": false,
          "name": "_amounts",
          "type": "uint256[]"
        }
      ],
      "name": "BulkTransferPerformed",
      "type": "event"
    },
    {
      "anonymous": false,
      "inputs": [
        {
          "indexed": false,
          "name": "_state",
          "type": "bool"
        }
      ],
      "name": "TokenReleased",
      "type": "event"
    },
    {
      "anonymous": false,
      "inputs": [
        {
          "indexed": true,
          "name": "to",
          "type": "address"
        },
        {
          "indexed": false,
          "name": "amount",
          "type": "uint256"
        }
      ],
      "name": "Mint",
      "type": "event"
    },
    {
      "anonymous": false,
      "inputs": [
        {
          "indexed": true,
          "name": "burner",
          "type": "address"
        },
        {
          "indexed": false,
          "name": "value",
          "type": "uint256"
        }
      ],
      "name": "Burn",
      "type": "event"
    },
    {
      "anonymous": false,
      "inputs": [],
      "name": "Paused",
      "type": "event"
    },
    {
      "anonymous": false,
      "inputs": [],
      "name": "Unpaused",
      "type": "event"
    },
    {
      "anonymous": false,
      "inputs": [
        {
          "indexed": true,
          "name": "_address",
          "type": "address"
        }
      ],
      "name": "AdminAdded",
      "type": "event"
    },
    {
      "anonymous": false,
      "inputs": [
        {
          "indexed": true,
          "name": "_address",
          "type": "address"
        }
      ],
      "name": "AdminRemoved",
      "type": "event"
    },
    {
      "anonymous": false,
      "inputs": [
        {
          "indexed": true,
          "name": "previousOwner",
          "type": "address"
        }
      ],
      "name": "OwnershipRenounced",
      "type": "event"
    },
    {
      "anonymous": false,
      "inputs": [
        {
          "indexed": true,
          "name": "previousOwner",
          "type": "address"
        },
        {
          "indexed": true,
          "name": "newOwner",
          "type": "address"
        }
      ],
      "name": "OwnershipTransferred",
      "type": "event"
    },
    {
      "anonymous": false,
      "inputs": [
        {
          "indexed": true,
          "name": "owner",
          "type": "address"
        },
        {
          "indexed": true,
          "name": "spender",
          "type": "address"
        },
        {
          "indexed": false,
          "name": "value",
          "type": "uint256"
        }
      ],
      "name": "Approval",
      "type": "event"
    },
    {
      "anonymous": false,
      "inputs": [
        {
          "indexed": true,
          "name": "from",
          "type": "address"
        },
        {
          "indexed": true,
          "name": "to",
          "type": "address"
        },
        {
          "indexed": false,
          "name": "value",
          "type": "uint256"
        }
      ],
      "name": "Transfer",
      "type": "event"
    },
    {
      "constant": false,
      "inputs": [],
      "name": "releaseTokenForTransfer",
      "outputs": [
        {
          "name": "",
          "type": "bool"
        }
      ],
      "payable": false,
      "stateMutability": "nonpayable",
      "type": "function"
    },
    {
      "constant": false,
      "inputs": [],
      "name": "disableTokenTransfers",
      "outputs": [
        {
          "name": "",
          "type": "bool"
        }
      ],
      "payable": false,
      "stateMutability": "nonpayable",
      "type": "function"
    },
    {
      "constant": false,
      "inputs": [
        {
          "name": "_to",
          "type": "address"
        },
        {
          "name": "_value",
          "type": "uint256"
        }
      ],
      "name": "transfer",
      "outputs": [
        {
          "name": "",
          "type": "bool"
        }
      ],
      "payable": false,
      "stateMutability": "nonpayable",
      "type": "function"
    },
    {
      "constant": false,
      "inputs": [
        {
          "name": "_from",
          "type": "address"
        },
        {
          "name": "_to",
          "type": "address"
        },
        {
          "name": "_value",
          "type": "uint256"
        }
      ],
      "name": "transferFrom",
      "outputs": [
        {
          "name": "",
          "type": "bool"
        }
      ],
      "payable": false,
      "stateMutability": "nonpayable",
      "type": "function"
    },
    {
      "constant": false,
      "inputs": [
        {
          "name": "_spender",
          "type": "address"
        },
        {
          "name": "_value",
          "type": "uint256"
        }
      ],
      "name": "approve",
      "outputs": [
        {
          "name": "",
          "type": "bool"
        }
      ],
      "payable": false,
      "stateMutability": "nonpayable",
      "type": "function"
    },
    {
      "constant": false,
      "inputs": [
        {
          "name": "_spender",
          "type": "address"
        },
        {
          "name": "_addedValue",
          "type": "uint256"
        }
      ],
      "name": "increaseApproval",
      "outputs": [
        {
          "name": "",
          "type": "bool"
        }
      ],
      "payable": false,
      "stateMutability": "nonpayable",
      "type": "function"
    },
    {
      "constant": false,
      "inputs": [
        {
          "name": "_spender",
          "type": "address"
        },
        {
          "name": "_subtractedValue",
          "type": "uint256"
        }
      ],
      "name": "decreaseApproval",
      "outputs": [
        {
          "name": "",
          "type": "bool"
        }
      ],
      "payable": false,
      "stateMutability": "nonpayable",
      "type": "function"
    },
    {
      "constant": false,
      "inputs": [
        {
          "name": "_destinations",
          "type": "address[]"
        },
        {
          "name": "_amounts",
          "type": "uint256[]"
        }
      ],
      "name": "bulkTransfer",
      "outputs": [
        {
          "name": "",
          "type": "bool"
        }
      ],
      "payable": false,
      "stateMutability": "nonpayable",
      "type": "function"
    },
    {
      "constant": false,
      "inputs": [
        {
          "name": "_value",
          "type": "uint256"
        }
      ],
      "name": "burn",
      "outputs": [],
      "payable": false,
      "stateMutability": "nonpayable",
      "type": "function"
    }
  ],
  "bytecode": "0x60806040526000600560006101000a81548160ff0219169083151502179055506000600560016101000a81548160ff0219169083151502179055503480156200004757600080fd5b5033600360006101000a81548173ffffffffffffffffffffffffffffffffffffffff021916908373ffffffffffffffffffffffffffffffffffffffff160217905550620000b13369d3c21bcecceda1000000606402620000b7640100000000026401000000009004565b620003d0565b600073ffffffffffffffffffffffffffffffffffffffff168273ffffffffffffffffffffffffffffffffffffffff16141515156200015d576040517f08c379a00000000000000000000000000000000000000000000000000000000081526004018080602001828103825260108152602001807f496e76616c696420616464726573732e0000000000000000000000000000000081525060200191505060405180910390fd5b69d3c21bcecceda100000060c8026200019082600154620003b36401000000000262003a8d179091906401000000009004565b111515156200022d576040517f08c379a000000000000000000000000000000000000000000000000000000000815260040180806020018281038252603b8152602001807f536f727279206275742074686520746f74616c20737570706c792063616e277481526020017f2065786365656420746865206d6178696d756d20737570706c792e000000000081525060400191505060405180910390fd5b6200028e816000808573ffffffffffffffffffffffffffffffffffffffff1673ffffffffffffffffffffffffffffffffffffffff16815260200190815260200160002054620003b36401000000000262003a8d179091906401000000009004565b6000808473ffffffffffffffffffffffffffffffffffffffff1673ffffffffffffffffffffffffffffffffffffffff16815260200190815260200160002081905550620002f581600154620003b36401000000000262003a8d179091906401000000009004565b6001819055508173ffffffffffffffffffffffffffffffffffffffff167f0f6798a560793a54c3bcfe86a93cde1e73087d944c0ea20544137d4121396885826040518082815260200191505060405180910390a28173ffffffffffffffffffffffffffffffffffffffff16600073ffffffffffffffffffffffffffffffffffffffff167fddf252ad1be2c89b69c2b068fc378daa952ba7f163c4a11628f55a4df523b3ef836040518082815260200191505060405180910390a35050565b60008183019050828110151515620003c757fe5b80905092915050565b613ca180620003e06000396000f300608060405260043610610180576000357c0100000000000000000000000000000000000000000000000000000000900463ffffffff16806306fdde0314610185578063095ea7b314610215578063153a1f3e1461027a5780631785f53c1461033b57806318160ddd1461037e57806323b872dd146103a957806324d7806c1461042e57806328e665ef146104895780632ff2e9dc146104b8578063313ce567146104e357806332cb6b0c146105145780633f4ba83a1461053f57806342966c6814610556578063429b62e5146105835780635c975abb146105de578063661884631461060d578063704802751461067257806370a08231146106b5578063715018a61461070c57806377f9db33146107235780638456cb59146107525780638da5cb5b1461076957806395d89b41146107c05780639613252114610850578063a8e6e77b1461087f578063a9059cbb146108ba578063d73dd6231461091f578063dd62ed3e14610984578063f1bca30f146109fb578063f2fde38b14610a36575b600080fd5b34801561019157600080fd5b5061019a610a79565b6040518080602001828103825283818151815260200191508051906020019080838360005b838110156101da5780820151818401526020810190506101bf565b50505050905090810190601f1680156102075780820380516001836020036101000a031916815260200191505b509250505060405180910390f35b34801561022157600080fd5b50610260600480360381019080803573ffffffffffffffffffffffffffffffffffffffff16906020019092919080359060200190929190505050610ab2565b604051808215151515815260200191505060405180910390f35b34801561028657600080fd5b506103216004803603810190808035906020019082018035906020019080806020026020016040519081016040528093929190818152602001838360200280828437820191505050505050919291929080359060200190820180359060200190808060200260200160405190810160405280939291908181526020018383602002808284378201915050505050509192919290505050610c3e565b604051808215151515815260200191505060405180910390f35b34801561034757600080fd5b5061037c600480360381019080803573ffffffffffffffffffffffffffffffffffffffff169060200190929190505050610f41565b005b34801561038a57600080fd5b506103936112fa565b6040518082815260200191505060405180910390f35b3480156103b557600080fd5b50610414600480360381019080803573ffffffffffffffffffffffffffffffffffffffff169060200190929190803573ffffffffffffffffffffffffffffffffffffffff16906020019092919080359060200190929190505050611304565b604051808215151515815260200191505060405180910390f35b34801561043a57600080fd5b5061046f600480360381019080803573ffffffffffffffffffffffffffffffffffffffff169060200190929190505050611492565b604051808215151515815260200191505060405180910390f35b34801561049557600080fd5b5061049e611548565b604051808215151515815260200191505060405180910390f35b3480156104c457600080fd5b506104cd611789565b6040518082815260200191505060405180910390f35b3480156104ef57600080fd5b506104f861179a565b604051808260ff1660ff16815260200191505060405180910390f35b34801561052057600080fd5b5061052961179f565b6040518082815260200191505060405180910390f35b34801561054b57600080fd5b506105546117b0565b005b34801561056257600080fd5b5061058160048036038101908080359060200190929190505050611920565b005b34801561058f57600080fd5b506105c4600480360381019080803573ffffffffffffffffffffffffffffffffffffffff1690602001909291905050506119d7565b604051808215151515815260200191505060405180910390f35b3480156105ea57600080fd5b506105f36119f7565b604051808215151515815260200191505060405180910390f35b34801561061957600080fd5b50610658600480360381019080803573ffffffffffffffffffffffffffffffffffffffff16906020019092919080359060200190929190505050611a0a565b604051808215151515815260200191505060405180910390f35b34801561067e57600080fd5b506106b3600480360381019080803573ffffffffffffffffffffffffffffffffffffffff169060200190929190505050611b96565b005b3480156106c157600080fd5b506106f6600480360381019080803573ffffffffffffffffffffffffffffffffffffffff169060200190929190505050611f50565b6040518082815260200191505060405180910390f35b34801561071857600080fd5b50610721611f98565b005b34801561072f57600080fd5b5061073861209d565b604051808215151515815260200191505060405180910390f35b34801561075e57600080fd5b506107676122dd565b005b34801561077557600080fd5b5061077e61244e565b604051808273ffffffffffffffffffffffffffffffffffffffff1673ffffffffffffffffffffffffffffffffffffffff16815260200191505060405180910390f35b3480156107cc57600080fd5b506107d5612474565b6040518080602001828103825283818151815260200191508051906020019080838360005b838110156108155780820151818401526020810190506107fa565b50505050905090810190601f1680156108425780820380516001836020036101000a031916815260200191505b509250505060405180910390f35b34801561085c57600080fd5b506108656124ad565b604051808215151515815260200191505060405180910390f35b34801561088b57600080fd5b506108b86004803603810190808035906020019082018035906020019190919293919293905050506124c0565b005b3480156108c657600080fd5b50610905600480360381019080803573ffffffffffffffffffffffffffffffffffffffff16906020019092919080359060200190929190505050612745565b604051808215151515815260200191505060405180910390f35b34801561092b57600080fd5b5061096a600480360381019080803573ffffffffffffffffffffffffffffffffffffffff169060200190929190803590602001909291905050506128d1565b604051808215151515815260200191505060405180910390f35b34801561099057600080fd5b506109e5600480360381019080803573ffffffffffffffffffffffffffffffffffffffff169060200190929190803573ffffffffffffffffffffffffffffffffffffffff169060200190929190505050612a5d565b6040518082815260200191505060405180910390f35b348015610a0757600080fd5b50610a34600480360381019080803590602001908201803590602001919091929391929390505050612ae4565b005b348015610a4257600080fd5b50610a77600480360381019080803573ffffffffffffffffffffffffffffffffffffffff169060200190929190505050612d68565b005b6040805190810160405280600d81526020017f46756c6372756d20546f6b656e0000000000000000000000000000000000000081525081565b600033600560009054906101000a900460ff1680610add5750600560019054906101000a900460ff16155b15610b8657610aeb81611492565b1515610b85576040517f08c379a00000000000000000000000000000000000000000000000000000000081526004018080602001828103825260388152602001807f4f7065726174696f6e206e6f7420616c6c6f7765642e20546865207472616e7381526020017f66657220737461746520697320726573747269637465642e000000000000000081525060400191505060405180910390fd5b5b600073ffffffffffffffffffffffffffffffffffffffff168473ffffffffffffffffffffffffffffffffffffffff1614151515610c2b576040517f08c379a00000000000000000000000000000000000000000000000000000000081526004018080602001828103825260108152602001807f496e76616c696420616464726573732e0000000000000000000000000000000081525060200191505060405180910390fd5b610c358484612dd0565b91505092915050565b6000806000610c4c33611492565b1515610cc0576040517f08c379a00000000000000000000000000000000000000000000000000000000081526004018080602001828103825260118152602001807f4163636573732069732064656e6965642e00000000000000000000000000000081525060200191505060405180910390fd5b83518551141515610d39576040517f08c379a00000000000000000000000000000000000000000000000000000000081526004018080602001828103825260128152602001807f496e76616c6964206f7065726174696f6e2e000000000000000000000000000081525060200191505060405180910390fd5b610d4284612ec2565b9150816000803373ffffffffffffffffffffffffffffffffffffffff1673ffffffffffffffffffffffffffffffffffffffff1681526020019081526020016000205410151515610e20576040517f08c379a000000000000000000000000000000000000000000000000000000000815260040180806020018281038252603e8152602001807f596f7520646f6e277420686176652073756666696369656e742066756e64732081526020017f746f207472616e7366657220616d6f756e742074686174206c617267652e000081525060400191505060405180910390fd5b600090505b8451811015610e7457610e668582815181101515610e3f57fe5b906020019060200201518583815181101515610e5757fe5b90602001906020020151612745565b508080600101915050610e25565b7f9c1a54ca5f41a3eaa7ccf54ca1d1b659718f8da05cb67ddefe376ddbe38511bd8585604051808060200180602001838103835285818151815260200191508051906020019060200280838360005b83811015610ede578082015181840152602081019050610ec3565b50505050905001838103825284818151815260200191508051906020019060200280838360005b83811015610f20578082015181840152602081019050610f05565b5050505090500194505050505060405180910390a160019250505092915050565b610f4a33611492565b1515610fbe576040517f08c379a00000000000000000000000000000000000000000000000000000000081526004018080602001828103825260118152602001807f4163636573732069732064656e6965642e00000000000000000000000000000081525060200191505060405180910390fd5b600073ffffffffffffffffffffffffffffffffffffffff168173ffffffffffffffffffffffffffffffffffffffff1614151515611063576040517f08c379a00000000000000000000000000000000000000000000000000000000081526004018080602001828103825260108152602001807f496e76616c696420616464726573732e0000000000000000000000000000000081525060200191505060405180910390fd5b600460008273ffffffffffffffffffffffffffffffffffffffff1673ffffffffffffffffffffffffffffffffffffffff16815260200190815260200160002060009054906101000a900460ff16151561114a576040517f08c379a00000000000000000000000000000000000000000000000000000000081526004018080602001828103825260248152602001807f5468697320616464726573732069736e277420616e2061646d696e697374726181526020017f746f722e0000000000000000000000000000000000000000000000000000000081525060400191505060405180910390fd5b600360009054906101000a900473ffffffffffffffffffffffffffffffffffffffff1673ffffffffffffffffffffffffffffffffffffffff168173ffffffffffffffffffffffffffffffffffffffff161415151561125c576040517f08c379a00000000000000000000000000000000000000000000000000000000081526004018080602001828103825260478152602001807f546865206f776e65722063616e6e6f74206265206164646564206f722072656d81526020017f6f76656420746f206f722066726f6d207468652061646d696e6973747261746f81526020017f72206c6973742e0000000000000000000000000000000000000000000000000081525060600191505060405180910390fd5b6000600460008373ffffffffffffffffffffffffffffffffffffffff1673ffffffffffffffffffffffffffffffffffffffff16815260200190815260200160002060006101000a81548160ff0219169083151502179055508073ffffffffffffffffffffffffffffffffffffffff167fa3b62bc36326052d97ea62d63c3d60308ed4c3ea8ac079dd8499f1e9c4f80c0f60405160405180910390a250565b6000600154905090565b600083600560009054906101000a900460ff168061132f5750600560019054906101000a900460ff16155b156113d85761133d81611492565b15156113d7576040517f08c379a00000000000000000000000000000000000000000000000000000000081526004018080602001828103825260388152602001807f4f7065726174696f6e206e6f7420616c6c6f7765642e20546865207472616e7381526020017f66657220737461746520697320726573747269637465642e000000000000000081525060400191505060405180910390fd5b5b600073ffffffffffffffffffffffffffffffffffffffff168473ffffffffffffffffffffffffffffffffffffffff161415151561147d576040517f08c379a00000000000000000000000000000000000000000000000000000000081526004018080602001828103825260108152602001807f496e76616c696420616464726573732e0000000000000000000000000000000081525060200191505060405180910390fd5b611488858585612f1b565b9150509392505050565b6000600360009054906101000a900473ffffffffffffffffffffffffffffffffffffffff1673ffffffffffffffffffffffffffffffffffffffff168273ffffffffffffffffffffffffffffffffffffffff1614156114f35760019050611543565b600460008373ffffffffffffffffffffffffffffffffffffffff1673ffffffffffffffffffffffffffffffffffffffff16815260200190815260200160002060009054906101000a900460ff1690505b919050565b600061155333611492565b15156115c7576040517f08c379a00000000000000000000000000000000000000000000000000000000081526004018080602001828103825260118152602001807f4163636573732069732064656e6965642e00000000000000000000000000000081525060200191505060405180910390fd5b600560009054906101000a900460ff16151515611672576040517f08c379a00000000000000000000000000000000000000000000000000000000081526004018080602001828103825260248152602001807f536f727279206275742074686520636f6e74726163742069736e27742070617581526020017f7365642e0000000000000000000000000000000000000000000000000000000081525060400191505060405180910390fd5b600560019054906101000a900460ff1615151561171d576040517f08c379a000000000000000000000000000000000000000000000000000000000815260040180806020018281038252603c8152602001807f496e76616c6964206f7065726174696f6e2e20546865207472616e736665722081526020017f7374617465206973206e6f206d6f726520726573747269637465642e0000000081525060400191505060405180910390fd5b6001600560016101000a81548160ff0219169083151502179055507fcbdf0fab2b7a1540009af97a79f3ea7944943c175155b588639cec284eebc804600560019054906101000a900460ff16604051808215151515815260200191505060405180910390a16001905090565b69d3c21bcecceda100000060640281565b601281565b69d3c21bcecceda100000060c80281565b6117b933611492565b151561182d576040517f08c379a00000000000000000000000000000000000000000000000000000000081526004018080602001828103825260118152602001807f4163636573732069732064656e6965642e00000000000000000000000000000081525060200191505060405180910390fd5b600560009054906101000a900460ff1615156118d7576040517f08c379a00000000000000000000000000000000000000000000000000000000081526004018080602001828103825260218152602001807f536f727279206275742074686520636f6e74726163742069732070617573656481526020017f2e0000000000000000000000000000000000000000000000000000000000000081525060400191505060405180910390fd5b6000600560006101000a81548160ff0219169083151502179055507fa45f47fdea8a1efdd9029a5691c7f759c32b7c698632b563573e155625d1693360405160405180910390a1565b600560009054906101000a900460ff161515156119cb576040517f08c379a00000000000000000000000000000000000000000000000000000000081526004018080602001828103825260248152602001807f536f727279206275742074686520636f6e74726163742069736e27742070617581526020017f7365642e0000000000000000000000000000000000000000000000000000000081525060400191505060405180910390fd5b6119d4816132d6565b50565b60046020528060005260406000206000915054906101000a900460ff1681565b600560009054906101000a900460ff1681565b600033600560009054906101000a900460ff1680611a355750600560019054906101000a900460ff16155b15611ade57611a4381611492565b1515611add576040517f08c379a00000000000000000000000000000000000000000000000000000000081526004018080602001828103825260388152602001807f4f7065726174696f6e206e6f7420616c6c6f7765642e20546865207472616e7381526020017f66657220737461746520697320726573747269637465642e000000000000000081525060400191505060405180910390fd5b5b600073ffffffffffffffffffffffffffffffffffffffff168473ffffffffffffffffffffffffffffffffffffffff1614151515611b83576040517f08c379a00000000000000000000000000000000000000000000000000000000081526004018080602001828103825260108152602001807f496e76616c696420616464726573732e0000000000000000000000000000000081525060200191505060405180910390fd5b611b8d84846132e3565b91505092915050565b611b9f33611492565b1515611c13576040517f08c379a00000000000000000000000000000000000000000000000000000000081526004018080602001828103825260118152602001807f4163636573732069732064656e6965642e00000000000000000000000000000081525060200191505060405180910390fd5b600073ffffffffffffffffffffffffffffffffffffffff168173ffffffffffffffffffffffffffffffffffffffff1614151515611cb8576040517f08c379a00000000000000000000000000000000000000000000000000000000081526004018080602001828103825260108152602001807f496e76616c696420616464726573732e0000000000000000000000000000000081525060200191505060405180910390fd5b600460008273ffffffffffffffffffffffffffffffffffffffff1673ffffffffffffffffffffffffffffffffffffffff16815260200190815260200160002060009054906101000a900460ff16151515611da0576040517f08c379a00000000000000000000000000000000000000000000000000000000081526004018080602001828103825260298152602001807f54686973206164647265737320697320616c726561647920616e2061646d696e81526020017f6973747261746f722e000000000000000000000000000000000000000000000081525060400191505060405180910390fd5b600360009054906101000a900473ffffffffffffffffffffffffffffffffffffffff1673ffffffffffffffffffffffffffffffffffffffff168173ffffffffffffffffffffffffffffffffffffffff1614151515611eb2576040517f08c379a00000000000000000000000000000000000000000000000000000000081526004018080602001828103825260478152602001807f546865206f776e65722063616e6e6f74206265206164646564206f722072656d81526020017f6f76656420746f206f722066726f6d207468652061646d696e6973747261746f81526020017f72206c6973742e0000000000000000000000000000000000000000000000000081525060600191505060405180910390fd5b6001600460008373ffffffffffffffffffffffffffffffffffffffff1673ffffffffffffffffffffffffffffffffffffffff16815260200190815260200160002060006101000a81548160ff0219169083151502179055508073ffffffffffffffffffffffffffffffffffffffff167f44d6d25963f097ad14f29f06854a01f575648a1ef82f30e562ccd3889717e33960405160405180910390a250565b60008060008373ffffffffffffffffffffffffffffffffffffffff1673ffffffffffffffffffffffffffffffffffffffff168152602001908152602001600020549050919050565b600360009054906101000a900473ffffffffffffffffffffffffffffffffffffffff1673ffffffffffffffffffffffffffffffffffffffff163373ffffffffffffffffffffffffffffffffffffffff16141515611ff457600080fd5b600360009054906101000a900473ffffffffffffffffffffffffffffffffffffffff1673ffffffffffffffffffffffffffffffffffffffff167ff8df31144d9c2f0f6b59d69b8b98abd5459d07f2742c4df920b25aae33c6482060405160405180910390a26000600360006101000a81548173ffffffffffffffffffffffffffffffffffffffff021916908373ffffffffffffffffffffffffffffffffffffffff160217905550565b60006120a833611492565b151561211c576040517f08c379a00000000000000000000000000000000000000000000000000000000081526004018080602001828103825260118152602001807f4163636573732069732064656e6965642e00000000000000000000000000000081525060200191505060405180910390fd5b600560009054906101000a900460ff161515156121c7576040517f08c379a00000000000000000000000000000000000000000000000000000000081526004018080602001828103825260248152602001807f536f727279206275742074686520636f6e74726163742069736e27742070617581526020017f7365642e0000000000000000000000000000000000000000000000000000000081525060400191505060405180910390fd5b600560019054906101000a900460ff161515612271576040517f08c379a000000000000000000000000000000000000000000000000000000000815260040180806020018281038252603c8152602001807f496e76616c6964206f7065726174696f6e2e20546865207472616e736665722081526020017f737461746520697320616c726561647920726573747269637465642e0000000081525060400191505060405180910390fd5b6000600560016101000a81548160ff0219169083151502179055507fcbdf0fab2b7a1540009af97a79f3ea7944943c175155b588639cec284eebc804600560019054906101000a900460ff16604051808215151515815260200191505060405180910390a16001905090565b6122e633611492565b151561235a576040517f08c379a00000000000000000000000000000000000000000000000000000000081526004018080602001828103825260118152602001807f4163636573732069732064656e6965642e00000000000000000000000000000081525060200191505060405180910390fd5b600560009054906101000a900460ff16151515612405576040517f08c379a00000000000000000000000000000000000000000000000000000000081526004018080602001828103825260248152602001807f536f727279206275742074686520636f6e74726163742069736e27742070617581526020017f7365642e0000000000000000000000000000000000000000000000000000000081525060400191505060405180910390fd5b6001600560006101000a81548160ff0219169083151502179055507f9e87fac88ff661f02d44f95383c817fece4bce600a3dab7a54406878b965e75260405160405180910390a1565b600360009054906101000a900473ffffffffffffffffffffffffffffffffffffffff1681565b6040805190810160405280600481526020017f46554c430000000000000000000000000000000000000000000000000000000081525081565b600560019054906101000a900460ff1681565b6000806124cc33611492565b1515612540576040517f08c379a00000000000000000000000000000000000000000000000000000000081526004018080602001828103825260118152602001807f4163636573732069732064656e6965642e00000000000000000000000000000081525060200191505060405180910390fd5b600091505b838390508260ff16101561273f5783838360ff16818110151561256457fe5b9050602002013573ffffffffffffffffffffffffffffffffffffffff169050600073ffffffffffffffffffffffffffffffffffffffff168173ffffffffffffffffffffffffffffffffffffffff161415801561260a5750600460008273ffffffffffffffffffffffffffffffffffffffff1673ffffffffffffffffffffffffffffffffffffffff16815260200190815260200160002060009054906101000a900460ff16155b80156126645750600360009054906101000a900473ffffffffffffffffffffffffffffffffffffffff1673ffffffffffffffffffffffffffffffffffffffff168173ffffffffffffffffffffffffffffffffffffffff1614155b15612732576001600460008373ffffffffffffffffffffffffffffffffffffffff1673ffffffffffffffffffffffffffffffffffffffff16815260200190815260200160002060006101000a81548160ff02191690831515021790555083838360ff1681811015156126d257fe5b9050602002013573ffffffffffffffffffffffffffffffffffffffff1673ffffffffffffffffffffffffffffffffffffffff167f44d6d25963f097ad14f29f06854a01f575648a1ef82f30e562ccd3889717e33960405160405180910390a25b8180600101925050612545565b50505050565b600033600560009054906101000a900460ff16806127705750600560019054906101000a900460ff16155b156128195761277e81611492565b1515612818576040517f08c379a00000000000000000000000000000000000000000000000000000000081526004018080602001828103825260388152602001807f4f7065726174696f6e206e6f7420616c6c6f7765642e20546865207472616e7381526020017f66657220737461746520697320726573747269637465642e000000000000000081525060400191505060405180910390fd5b5b600073ffffffffffffffffffffffffffffffffffffffff168473ffffffffffffffffffffffffffffffffffffffff16141515156128be576040517f08c379a00000000000000000000000000000000000000000000000000000000081526004018080602001828103825260108152602001807f496e76616c696420616464726573732e0000000000000000000000000000000081525060200191505060405180910390fd5b6128c88484613575565b91505092915050565b600033600560009054906101000a900460ff16806128fc5750600560019054906101000a900460ff16155b156129a55761290a81611492565b15156129a4576040517f08c379a00000000000000000000000000000000000000000000000000000000081526004018080602001828103825260388152602001807f4f7065726174696f6e206e6f7420616c6c6f7765642e20546865207472616e7381526020017f66657220737461746520697320726573747269637465642e000000000000000081525060400191505060405180910390fd5b5b600073ffffffffffffffffffffffffffffffffffffffff168473ffffffffffffffffffffffffffffffffffffffff1614151515612a4a576040517f08c379a00000000000000000000000000000000000000000000000000000000081526004018080602001828103825260108152602001807f496e76616c696420616464726573732e0000000000000000000000000000000081525060200191505060405180910390fd5b612a548484613795565b91505092915050565b6000600260008473ffffffffffffffffffffffffffffffffffffffff1673ffffffffffffffffffffffffffffffffffffffff16815260200190815260200160002060008373ffffffffffffffffffffffffffffffffffffffff1673ffffffffffffffffffffffffffffffffffffffff16815260200190815260200160002054905092915050565b600080612af033611492565b1515612b64576040517f08c379a00000000000000000000000000000000000000000000000000000000081526004018080602001828103825260118152602001807f4163636573732069732064656e6965642e00000000000000000000000000000081525060200191505060405180910390fd5b600091505b838390508260ff161015612d625783838360ff168181101515612b8857fe5b9050602002013573ffffffffffffffffffffffffffffffffffffffff169050600073ffffffffffffffffffffffffffffffffffffffff168173ffffffffffffffffffffffffffffffffffffffff1614158015612c2d5750600460008273ffffffffffffffffffffffffffffffffffffffff1673ffffffffffffffffffffffffffffffffffffffff16815260200190815260200160002060009054906101000a900460ff165b8015612c875750600360009054906101000a900473ffffffffffffffffffffffffffffffffffffffff1673ffffffffffffffffffffffffffffffffffffffff168173ffffffffffffffffffffffffffffffffffffffff1614155b15612d55576000600460008373ffffffffffffffffffffffffffffffffffffffff1673ffffffffffffffffffffffffffffffffffffffff16815260200190815260200160002060006101000a81548160ff02191690831515021790555083838360ff168181101515612cf557fe5b9050602002013573ffffffffffffffffffffffffffffffffffffffff1673ffffffffffffffffffffffffffffffffffffffff167fa3b62bc36326052d97ea62d63c3d60308ed4c3ea8ac079dd8499f1e9c4f80c0f60405160405180910390a25b8180600101925050612b69565b50505050565b600360009054906101000a900473ffffffffffffffffffffffffffffffffffffffff1673ffffffffffffffffffffffffffffffffffffffff163373ffffffffffffffffffffffffffffffffffffffff16141515612dc457600080fd5b612dcd81613991565b50565b600081600260003373ffffffffffffffffffffffffffffffffffffffff1673ffffffffffffffffffffffffffffffffffffffff16815260200190815260200160002060008573ffffffffffffffffffffffffffffffffffffffff1673ffffffffffffffffffffffffffffffffffffffff168152602001908152602001600020819055508273ffffffffffffffffffffffffffffffffffffffff163373ffffffffffffffffffffffffffffffffffffffff167f8c5be1e5ebec7d5bd14f71427d1e84f3dd0314c0f7b2291e5b200ac8c7c3b925846040518082815260200191505060405180910390a36001905092915050565b6000806000809150600090505b8351811015612f1157612f028482815181101515612ee957fe5b9060200190602002015183613a8d90919063ffffffff16565b91508080600101915050612ecf565b8192505050919050565b60008060008573ffffffffffffffffffffffffffffffffffffffff1673ffffffffffffffffffffffffffffffffffffffff168152602001908152602001600020548211151515612f6a57600080fd5b600260008573ffffffffffffffffffffffffffffffffffffffff1673ffffffffffffffffffffffffffffffffffffffff16815260200190815260200160002060003373ffffffffffffffffffffffffffffffffffffffff1673ffffffffffffffffffffffffffffffffffffffff168152602001908152602001600020548211151515612ff557600080fd5b600073ffffffffffffffffffffffffffffffffffffffff168373ffffffffffffffffffffffffffffffffffffffff161415151561303157600080fd5b613082826000808773ffffffffffffffffffffffffffffffffffffffff1673ffffffffffffffffffffffffffffffffffffffff16815260200190815260200160002054613aa990919063ffffffff16565b6000808673ffffffffffffffffffffffffffffffffffffffff1673ffffffffffffffffffffffffffffffffffffffff16815260200190815260200160002081905550613115826000808673ffffffffffffffffffffffffffffffffffffffff1673ffffffffffffffffffffffffffffffffffffffff16815260200190815260200160002054613a8d90919063ffffffff16565b6000808573ffffffffffffffffffffffffffffffffffffffff1673ffffffffffffffffffffffffffffffffffffffff168152602001908152602001600020819055506131e682600260008773ffffffffffffffffffffffffffffffffffffffff1673ffffffffffffffffffffffffffffffffffffffff16815260200190815260200160002060003373ffffffffffffffffffffffffffffffffffffffff1673ffffffffffffffffffffffffffffffffffffffff16815260200190815260200160002054613aa990919063ffffffff16565b600260008673ffffffffffffffffffffffffffffffffffffffff1673ffffffffffffffffffffffffffffffffffffffff16815260200190815260200160002060003373ffffffffffffffffffffffffffffffffffffffff1673ffffffffffffffffffffffffffffffffffffffff168152602001908152602001600020819055508273ffffffffffffffffffffffffffffffffffffffff168473ffffffffffffffffffffffffffffffffffffffff167fddf252ad1be2c89b69c2b068fc378daa952ba7f163c4a11628f55a4df523b3ef846040518082815260200191505060405180910390a3600190509392505050565b6132e03382613ac2565b50565b600080600260003373ffffffffffffffffffffffffffffffffffffffff1673ffffffffffffffffffffffffffffffffffffffff16815260200190815260200160002060008573ffffffffffffffffffffffffffffffffffffffff1673ffffffffffffffffffffffffffffffffffffffff16815260200190815260200160002054905080831015156133f5576000600260003373ffffffffffffffffffffffffffffffffffffffff1673ffffffffffffffffffffffffffffffffffffffff16815260200190815260200160002060008673ffffffffffffffffffffffffffffffffffffffff1673ffffffffffffffffffffffffffffffffffffffff16815260200190815260200160002081905550613489565b6134088382613aa990919063ffffffff16565b600260003373ffffffffffffffffffffffffffffffffffffffff1673ffffffffffffffffffffffffffffffffffffffff16815260200190815260200160002060008673ffffffffffffffffffffffffffffffffffffffff1673ffffffffffffffffffffffffffffffffffffffff168152602001908152602001600020819055505b8373ffffffffffffffffffffffffffffffffffffffff163373ffffffffffffffffffffffffffffffffffffffff167f8c5be1e5ebec7d5bd14f71427d1e84f3dd0314c0f7b2291e5b200ac8c7c3b925600260003373ffffffffffffffffffffffffffffffffffffffff1673ffffffffffffffffffffffffffffffffffffffff16815260200190815260200160002060008873ffffffffffffffffffffffffffffffffffffffff1673ffffffffffffffffffffffffffffffffffffffff168152602001908152602001600020546040518082815260200191505060405180910390a3600191505092915050565b60008060003373ffffffffffffffffffffffffffffffffffffffff1673ffffffffffffffffffffffffffffffffffffffff1681526020019081526020016000205482111515156135c457600080fd5b600073ffffffffffffffffffffffffffffffffffffffff168373ffffffffffffffffffffffffffffffffffffffff161415151561360057600080fd5b613651826000803373ffffffffffffffffffffffffffffffffffffffff1673ffffffffffffffffffffffffffffffffffffffff16815260200190815260200160002054613aa990919063ffffffff16565b6000803373ffffffffffffffffffffffffffffffffffffffff1673ffffffffffffffffffffffffffffffffffffffff168152602001908152602001600020819055506136e4826000808673ffffffffffffffffffffffffffffffffffffffff1673ffffffffffffffffffffffffffffffffffffffff16815260200190815260200160002054613a8d90919063ffffffff16565b6000808573ffffffffffffffffffffffffffffffffffffffff1673ffffffffffffffffffffffffffffffffffffffff168152602001908152602001600020819055508273ffffffffffffffffffffffffffffffffffffffff163373ffffffffffffffffffffffffffffffffffffffff167fddf252ad1be2c89b69c2b068fc378daa952ba7f163c4a11628f55a4df523b3ef846040518082815260200191505060405180910390a36001905092915050565b600061382682600260003373ffffffffffffffffffffffffffffffffffffffff1673ffffffffffffffffffffffffffffffffffffffff16815260200190815260200160002060008673ffffffffffffffffffffffffffffffffffffffff1673ffffffffffffffffffffffffffffffffffffffff16815260200190815260200160002054613a8d90919063ffffffff16565b600260003373ffffffffffffffffffffffffffffffffffffffff1673ffffffffffffffffffffffffffffffffffffffff16815260200190815260200160002060008573ffffffffffffffffffffffffffffffffffffffff1673ffffffffffffffffffffffffffffffffffffffff168152602001908152602001600020819055508273ffffffffffffffffffffffffffffffffffffffff163373ffffffffffffffffffffffffffffffffffffffff167f8c5be1e5ebec7d5bd14f71427d1e84f3dd0314c0f7b2291e5b200ac8c7c3b925600260003373ffffffffffffffffffffffffffffffffffffffff1673ffffffffffffffffffffffffffffffffffffffff16815260200190815260200160002060008773ffffffffffffffffffffffffffffffffffffffff1673ffffffffffffffffffffffffffffffffffffffff168152602001908152602001600020546040518082815260200191505060405180910390a36001905092915050565b600073ffffffffffffffffffffffffffffffffffffffff168173ffffffffffffffffffffffffffffffffffffffff16141515156139cd57600080fd5b8073ffffffffffffffffffffffffffffffffffffffff16600360009054906101000a900473ffffffffffffffffffffffffffffffffffffffff1673ffffffffffffffffffffffffffffffffffffffff167f8be0079c531659141344cd1fd0a4f28419497f9722a3daafe3b4186f6b6457e060405160405180910390a380600360006101000a81548173ffffffffffffffffffffffffffffffffffffffff021916908373ffffffffffffffffffffffffffffffffffffffff16021790555050565b60008183019050828110151515613aa057fe5b80905092915050565b6000828211151515613ab757fe5b818303905092915050565b6000808373ffffffffffffffffffffffffffffffffffffffff1673ffffffffffffffffffffffffffffffffffffffff168152602001908152602001600020548111151515613b0f57600080fd5b613b60816000808573ffffffffffffffffffffffffffffffffffffffff1673ffffffffffffffffffffffffffffffffffffffff16815260200190815260200160002054613aa990919063ffffffff16565b6000808473ffffffffffffffffffffffffffffffffffffffff1673ffffffffffffffffffffffffffffffffffffffff16815260200190815260200160002081905550613bb781600154613aa990919063ffffffff16565b6001819055508173ffffffffffffffffffffffffffffffffffffffff167fcc16f5dbb4873280815c1ee09dbd06736cffcc184412cf7a71a0fdb75d397ca5826040518082815260200191505060405180910390a2600073ffffffffffffffffffffffffffffffffffffffff168273ffffffffffffffffffffffffffffffffffffffff167fddf252ad1be2c89b69c2b068fc378daa952ba7f163c4a11628f55a4df523b3ef836040518082815260200191505060405180910390a350505600a165627a7a72305820baee11c4296d63d2cbf34699fd3f8d0e9b8fdf367758d1fb3253e019127677130029",
  "source": "/*\nCopyright 2018 Binod Nirvan @ Accept (http://accept.io)\nLicensed under the Apache License, Version 2.0 (the \"License\");\nyou may not use this file except in compliance with the License.\nYou may obtain a copy of the License at\n    http://www.apache.org/licenses/LICENSE-2.0\nUnless required by applicable law or agreed to in writing, software\ndistributed under the License is distributed on an \"AS IS\" BASIS,\nWITHOUT WARRANTIES OR CONDITIONS OF ANY KIND, either express or implied.\nSee the License for the specific language governing permissions and\nlimitations under the License.\n*/\n\npragma solidity ^0.4.24;\n\nimport \"openzeppelin-solidity/contracts/token/ERC20/StandardToken.sol\";\nimport \"openzeppelin-solidity/contracts/token/ERC20/BurnableToken.sol\";\nimport \"./CustomPausable.sol\";\n\n\n///@title Fulcrum Token Base Contract\n///@author Binod Nirvan\n///@notice The FULC is our native settlements token used across our marketplace, \n///and will enable many important functions within the Accept global marketplace including: \n///A medium of exchange (settlements) for Accept.io buyers and sellers A consumptive use (utility) token \n///for marketplace users to access premium features in the Accept.io DApp An incentive for users to help \n///improve the Accept Marketplace and contribute to the long-term development of Accept.io\ncontract FulcrumTokenBase is StandardToken, CustomPausable, BurnableToken {\n  //solhint-disable\n  uint8 public constant decimals = 18;\n  string public constant name = \"Fulcrum Token\";\n  string public constant symbol = \"FULC\";\n  //solhint-enable\n\n  bool public released = false;\n\n  uint256 internal constant MILLION = 1000000 * 1 ether; \n  uint256 public constant MAX_SUPPLY = 200 * MILLION;\n  uint256 public constant INITIAL_SUPPLY = 100 * MILLION;\n\n  event BulkTransferPerformed(address[] _destinations, uint256[] _amounts);\n  event TokenReleased(bool _state);\n  event Mint(address indexed to, uint256 amount);\n\n  constructor() public {\n    mintTokens(msg.sender, INITIAL_SUPPLY);\n  }\n\n  ///@notice Checks if the supplied address is able to perform transfers.\n  ///@param _from The address to check against if the transfer is allowed.\n  modifier canTransfer(address _from) {\n    if(paused || !released) {\n      if(!isAdmin(_from)) {\n        revert(\"Operation not allowed. The transfer state is restricted.\");\n      }\n    }\n\n    _;\n  }\n\n  ///@notice This function enables token transfers for everyone.\n  ///Can only be enabled after the end of the ICO.\n  function releaseTokenForTransfer() external onlyAdmin whenNotPaused returns(bool) {\n    require(!released, \"Invalid operation. The transfer state is no more restricted.\");\n\n    released = true;\n\n    emit TokenReleased(released);\n    return true;\n  }\n\n  ///@notice This function disables token transfers for everyone.\n  function disableTokenTransfers() external onlyAdmin whenNotPaused returns(bool) {\n    require(released, \"Invalid operation. The transfer state is already restricted.\");\n\n    released = false;\n\n    emit TokenReleased(released);\n    return true;\n  }\n\n  ///@notice Transfers the specified value of FULC tokens to the destination address. \n  //Transfers can only happen when the transfer state is enabled. \n  //Transfer state can only be enabled after the end of the crowdsale.\n  ///@param _to The destination wallet address to transfer funds to.\n  ///@param _value The amount of tokens to send to the destination address.\n  function transfer(address _to, uint256 _value) public canTransfer(msg.sender) returns(bool) {\n    require(_to != address(0), \"Invalid address.\");\n    return super.transfer(_to, _value);\n  }\n\n  ///@notice Transfers tokens from a specified wallet address.\n  ///@dev This function is overridden to leverage transfer state feature.\n  ///@param _from The address to transfer funds from.\n  ///@param _to The address to transfer funds to.\n  ///@param _value The amount of tokens to transfer.\n  function transferFrom(address _from, address _to, uint256 _value) public canTransfer(_from) returns(bool) {\n    require(_to != address(0), \"Invalid address.\");\n    return super.transferFrom(_from, _to, _value);\n  }\n\n  ///@notice Approves a wallet address to spend on behalf of the sender.\n  ///@dev This function is overridden to leverage transfer state feature.\n  ///@param _spender The address which is approved to spend on behalf of the sender.\n  ///@param _value The amount of tokens approve to spend. \n  function approve(address _spender, uint256 _value) public canTransfer(msg.sender) returns(bool) {\n    require(_spender != address(0), \"Invalid address.\");\n    return super.approve(_spender, _value);\n  }\n\n  ///@notice Increases the approval of the spender.\n  ///@dev This function is overridden to leverage transfer state feature.\n  ///@param _spender The address which is approved to spend on behalf of the sender.\n  ///@param _addedValue The added amount of tokens approved to spend.\n  function increaseApproval(address _spender, uint256 _addedValue) public canTransfer(msg.sender) returns(bool) {\n    require(_spender != address(0), \"Invalid address.\");\n    return super.increaseApproval(_spender, _addedValue);\n  }\n\n  ///@notice Decreases the approval of the spender.\n  ///@dev This function is overridden to leverage transfer state feature.\n  ///@param _spender The address of the spender to decrease the allocation from.\n  ///@param _subtractedValue The amount of tokens to subtract from the approved allocation.\n  function decreaseApproval(address _spender, uint256 _subtractedValue) public canTransfer(msg.sender) returns(bool) {\n    require(_spender != address(0), \"Invalid address.\");\n    return super.decreaseApproval(_spender, _subtractedValue);\n  }\n  \n  ///@notice Allows only the admins and/or whitelisted applications to perform bulk transfer operation.\n  ///@param _destinations The destination wallet addresses to send funds to.\n  ///@param _amounts The respective amount of fund to send to the specified addresses. \n  function bulkTransfer(address[] _destinations, uint256[] _amounts) public onlyAdmin returns(bool) {\n    require(_destinations.length == _amounts.length, \"Invalid operation.\");\n\n    //Saving gas by determining if the sender has enough balance\n    //to post this transaction.\n    uint256 requiredBalance = sumOf(_amounts);\n    require(balances[msg.sender] >= requiredBalance, \"You don't have sufficient funds to transfer amount that large.\");\n    \n    for (uint256 i = 0; i < _destinations.length; i++) {\n      transfer(_destinations[i], _amounts[i]);\n    }\n\n    emit BulkTransferPerformed(_destinations, _amounts);\n    return true;\n  }\n\n  ///@notice Burns the coins held by the sender.\n  ///@param _value The amount of coins to burn.\n  ///@dev This function is overridden to leverage Pausable feature.\n  function burn(uint256 _value) public whenNotPaused {\n    super.burn(_value);\n  }\n\n  ///@notice Mints the supplied value of the tokens to the destination address.\n  //Minting cannot be performed any further once the maximum supply is reached.\n  //This function cannot be used by anyone except for this contract.\n  ///@param _to The address which will receive the minted tokens.\n  ///@param _value The amount of tokens to mint.\n  function mintTokens(address _to, uint _value) internal {\n    require(_to != address(0), \"Invalid address.\");\n    require(totalSupply_.add(_value) <= MAX_SUPPLY, \"Sorry but the total supply can't exceed the maximum supply.\");\n\n    balances[_to] = balances[_to].add(_value);\n    totalSupply_ = totalSupply_.add(_value);\n\n    emit Mint(_to, _value);\n    emit Transfer(address(0), _to, _value);\n  }\n  \n  ///@notice Returns the sum of supplied values.\n  ///@param _values The collection of values to create the sum from.  \n  function sumOf(uint256[] _values) private pure returns(uint256) {\n    uint256 total = 0;\n\n    for (uint256 i = 0; i < _values.length; i++) {\n      total = total.add(_values[i]);\n    }\n\n    return total;\n  }\n}",
  "sourcePath": "/Users/biod/Desktop/projects/fulcrum-token/contracts/FulcrumTokenBase.sol",
  "compiler": {
    "name": "solc",
    "version": "0.4.24+commit.e67f0147.Emscripten.clang"
  },
  "schemaVersion": "2.0.1",
  "updatedAt": "2018-11-11T17:01:16.418Z"
}