{
  "contractName": "FulcrumToken",
  "abi": [
    {
      "constant": true,
      "inputs": [],
      "name": "name",
      "outputs": [
        {
          "name": "",
          "type": "string"
        }
      ],
      "payable": false,
      "stateMutability": "view",
      "type": "function"
    },
    {
      "constant": false,
      "inputs": [
        {
          "name": "_spender",
          "type": "address"
        },
        {
          "name": "_value",
          "type": "uint256"
        }
      ],
      "name": "approve",
      "outputs": [
        {
          "name": "",
          "type": "bool"
        }
      ],
      "payable": false,
      "stateMutability": "nonpayable",
      "type": "function"
    },
    {
      "constant": false,
      "inputs": [
        {
          "name": "_destinations",
          "type": "address[]"
        },
        {
          "name": "_amounts",
          "type": "uint256[]"
        }
      ],
      "name": "bulkTransfer",
      "outputs": [
        {
          "name": "",
          "type": "bool"
        }
      ],
      "payable": false,
      "stateMutability": "nonpayable",
      "type": "function"
    },
    {
      "constant": false,
      "inputs": [
        {
          "name": "_address",
          "type": "address"
        }
      ],
      "name": "removeAdmin",
      "outputs": [],
      "payable": false,
      "stateMutability": "nonpayable",
      "type": "function"
    },
    {
      "constant": true,
      "inputs": [],
      "name": "totalSupply",
      "outputs": [
        {
          "name": "",
          "type": "uint256"
        }
      ],
      "payable": false,
      "stateMutability": "view",
      "type": "function"
    },
    {
      "constant": false,
      "inputs": [
        {
          "name": "_from",
          "type": "address"
        },
        {
          "name": "_to",
          "type": "address"
        },
        {
          "name": "_value",
          "type": "uint256"
        }
      ],
      "name": "transferFrom",
      "outputs": [
        {
          "name": "",
          "type": "bool"
        }
      ],
      "payable": false,
      "stateMutability": "nonpayable",
      "type": "function"
    },
    {
      "constant": true,
      "inputs": [
        {
          "name": "_address",
          "type": "address"
        }
      ],
      "name": "isAdmin",
      "outputs": [
        {
          "name": "",
          "type": "bool"
        }
      ],
      "payable": false,
      "stateMutability": "view",
      "type": "function"
    },
    {
      "constant": false,
      "inputs": [],
      "name": "releaseTokenForTransfer",
      "outputs": [
        {
          "name": "",
          "type": "bool"
        }
      ],
      "payable": false,
      "stateMutability": "nonpayable",
      "type": "function"
    },
    {
      "constant": true,
      "inputs": [],
      "name": "icoEndDate",
      "outputs": [
        {
          "name": "",
          "type": "uint256"
        }
      ],
      "payable": false,
      "stateMutability": "view",
      "type": "function"
    },
    {
      "constant": true,
      "inputs": [],
      "name": "INITIAL_SUPPLY",
      "outputs": [
        {
          "name": "",
          "type": "uint256"
        }
      ],
      "payable": false,
      "stateMutability": "view",
      "type": "function"
    },
    {
      "constant": true,
      "inputs": [],
      "name": "decimals",
      "outputs": [
        {
          "name": "",
          "type": "uint8"
        }
      ],
      "payable": false,
      "stateMutability": "view",
      "type": "function"
    },
    {
      "constant": true,
      "inputs": [],
      "name": "MAX_SUPPLY",
      "outputs": [
        {
          "name": "",
          "type": "uint256"
        }
      ],
      "payable": false,
      "stateMutability": "view",
      "type": "function"
    },
    {
      "constant": true,
      "inputs": [],
      "name": "targetReached",
      "outputs": [
        {
          "name": "",
          "type": "bool"
        }
      ],
      "payable": false,
      "stateMutability": "view",
      "type": "function"
    },
    {
      "constant": false,
      "inputs": [],
      "name": "unpause",
      "outputs": [],
      "payable": false,
      "stateMutability": "nonpayable",
      "type": "function"
    },
    {
      "constant": false,
      "inputs": [
        {
          "name": "_value",
          "type": "uint256"
        }
      ],
      "name": "burn",
      "outputs": [],
      "payable": false,
      "stateMutability": "nonpayable",
      "type": "function"
    },
    {
      "constant": true,
      "inputs": [
        {
          "name": "",
          "type": "address"
        }
      ],
      "name": "admins",
      "outputs": [
        {
          "name": "",
          "type": "bool"
        }
      ],
      "payable": false,
      "stateMutability": "view",
      "type": "function"
    },
    {
      "constant": true,
      "inputs": [],
      "name": "paused",
      "outputs": [
        {
          "name": "",
          "type": "bool"
        }
      ],
      "payable": false,
      "stateMutability": "view",
      "type": "function"
    },
    {
      "constant": false,
      "inputs": [
        {
          "name": "_spender",
          "type": "address"
        },
        {
          "name": "_subtractedValue",
          "type": "uint256"
        }
      ],
      "name": "decreaseApproval",
      "outputs": [
        {
          "name": "",
          "type": "bool"
        }
      ],
      "payable": false,
      "stateMutability": "nonpayable",
      "type": "function"
    },
    {
      "constant": false,
      "inputs": [
        {
          "name": "_address",
          "type": "address"
        }
      ],
      "name": "addAdmin",
      "outputs": [],
      "payable": false,
      "stateMutability": "nonpayable",
      "type": "function"
    },
    {
      "constant": true,
      "inputs": [
        {
          "name": "_owner",
          "type": "address"
        }
      ],
      "name": "balanceOf",
      "outputs": [
        {
          "name": "",
          "type": "uint256"
        }
      ],
      "payable": false,
      "stateMutability": "view",
      "type": "function"
    },
    {
      "constant": false,
      "inputs": [],
      "name": "renounceOwnership",
      "outputs": [],
      "payable": false,
      "stateMutability": "nonpayable",
      "type": "function"
    },
    {
      "constant": false,
      "inputs": [],
      "name": "disableTokenTransfers",
      "outputs": [
        {
          "name": "",
          "type": "bool"
        }
      ],
      "payable": false,
      "stateMutability": "nonpayable",
      "type": "function"
    },
    {
      "constant": true,
      "inputs": [],
      "name": "ALLOCATION_FOR_ADVISORS",
      "outputs": [
        {
          "name": "",
          "type": "uint256"
        }
      ],
      "payable": false,
      "stateMutability": "view",
      "type": "function"
    },
    {
      "constant": false,
      "inputs": [],
      "name": "pause",
      "outputs": [],
      "payable": false,
      "stateMutability": "nonpayable",
      "type": "function"
    },
    {
      "constant": true,
      "inputs": [],
      "name": "ALLOCATION_FOR_RESERVE",
      "outputs": [
        {
          "name": "",
          "type": "uint256"
        }
      ],
      "payable": false,
      "stateMutability": "view",
      "type": "function"
    },
    {
      "constant": true,
      "inputs": [],
      "name": "owner",
      "outputs": [
        {
          "name": "",
          "type": "address"
        }
      ],
      "payable": false,
      "stateMutability": "view",
      "type": "function"
    },
    {
      "constant": true,
      "inputs": [],
      "name": "ALLOCATION_FOR_COMMUNITY_REWARDS",
      "outputs": [
        {
          "name": "",
          "type": "uint256"
        }
      ],
      "payable": false,
      "stateMutability": "view",
      "type": "function"
    },
    {
      "constant": true,
      "inputs": [],
      "name": "ALLOCATION_FOR_STRATEGIC_PARTNERSHIPS",
      "outputs": [
        {
          "name": "",
          "type": "uint256"
        }
      ],
      "payable": false,
      "stateMutability": "view",
      "type": "function"
    },
    {
      "constant": true,
      "inputs": [],
      "name": "symbol",
      "outputs": [
        {
          "name": "",
          "type": "string"
        }
      ],
      "payable": false,
      "stateMutability": "view",
      "type": "function"
    },
    {
      "constant": true,
      "inputs": [],
      "name": "released",
      "outputs": [
        {
          "name": "",
          "type": "bool"
        }
      ],
      "payable": false,
      "stateMutability": "view",
      "type": "function"
    },
    {
      "constant": false,
      "inputs": [
        {
          "name": "_accounts",
          "type": "address[]"
        }
      ],
      "name": "addManyAdmins",
      "outputs": [],
      "payable": false,
      "stateMutability": "nonpayable",
      "type": "function"
    },
    {
      "constant": false,
      "inputs": [
        {
          "name": "_to",
          "type": "address"
        },
        {
          "name": "_value",
          "type": "uint256"
        }
      ],
      "name": "transfer",
      "outputs": [
        {
          "name": "",
          "type": "bool"
        }
      ],
      "payable": false,
      "stateMutability": "nonpayable",
      "type": "function"
    },
    {
      "constant": true,
      "inputs": [],
      "name": "ALLOCATION_FOR_INITIAL_STRATEGIC_PARTNERSHIPS",
      "outputs": [
        {
          "name": "",
          "type": "uint256"
        }
      ],
      "payable": false,
      "stateMutability": "view",
      "type": "function"
    },
    {
      "constant": true,
      "inputs": [],
      "name": "ALLOCATION_FOR_TEAM",
      "outputs": [
        {
          "name": "",
          "type": "uint256"
        }
      ],
      "payable": false,
      "stateMutability": "view",
      "type": "function"
    },
    {
      "constant": false,
      "inputs": [
        {
          "name": "_spender",
          "type": "address"
        },
        {
          "name": "_addedValue",
          "type": "uint256"
        }
      ],
      "name": "increaseApproval",
      "outputs": [
        {
          "name": "",
          "type": "bool"
        }
      ],
      "payable": false,
      "stateMutability": "nonpayable",
      "type": "function"
    },
    {
      "constant": true,
      "inputs": [
        {
          "name": "_owner",
          "type": "address"
        },
        {
          "name": "_spender",
          "type": "address"
        }
      ],
      "name": "allowance",
      "outputs": [
        {
          "name": "",
          "type": "uint256"
        }
      ],
      "payable": false,
      "stateMutability": "view",
      "type": "function"
    },
    {
      "constant": false,
      "inputs": [
        {
          "name": "_accounts",
          "type": "address[]"
        }
      ],
      "name": "removeManyAdmins",
      "outputs": [],
      "payable": false,
      "stateMutability": "nonpayable",
      "type": "function"
    },
    {
      "constant": false,
      "inputs": [
        {
          "name": "_newOwner",
          "type": "address"
        }
      ],
      "name": "transferOwnership",
      "outputs": [],
      "payable": false,
      "stateMutability": "nonpayable",
      "type": "function"
    },
    {
      "anonymous": false,
      "inputs": [
        {
          "indexed": false,
          "name": "_date",
          "type": "uint256"
        }
      ],
      "name": "ICOEndDateSet",
      "type": "event"
    },
    {
      "anonymous": false,
      "inputs": [],
      "name": "TargetReached",
      "type": "event"
    },
    {
      "anonymous": false,
      "inputs": [
        {
          "indexed": false,
          "name": "_destinations",
          "type": "address[]"
        },
        {
          "indexed": false,
          "name": "_amounts",
          "type": "uint256[]"
        }
      ],
      "name": "BulkTransferPerformed",
      "type": "event"
    },
    {
      "anonymous": false,
      "inputs": [
        {
          "indexed": false,
          "name": "_state",
          "type": "bool"
        }
      ],
      "name": "TokenReleased",
      "type": "event"
    },
    {
      "anonymous": false,
      "inputs": [
        {
          "indexed": true,
          "name": "to",
          "type": "address"
        },
        {
          "indexed": false,
          "name": "amount",
          "type": "uint256"
        }
      ],
      "name": "Mint",
      "type": "event"
    },
    {
      "anonymous": false,
      "inputs": [
        {
          "indexed": true,
          "name": "burner",
          "type": "address"
        },
        {
          "indexed": false,
          "name": "value",
          "type": "uint256"
        }
      ],
      "name": "Burn",
      "type": "event"
    },
    {
      "anonymous": false,
      "inputs": [],
      "name": "Paused",
      "type": "event"
    },
    {
      "anonymous": false,
      "inputs": [],
      "name": "Unpaused",
      "type": "event"
    },
    {
      "anonymous": false,
      "inputs": [
        {
          "indexed": true,
          "name": "_address",
          "type": "address"
        }
      ],
      "name": "AdminAdded",
      "type": "event"
    },
    {
      "anonymous": false,
      "inputs": [
        {
          "indexed": true,
          "name": "_address",
          "type": "address"
        }
      ],
      "name": "AdminRemoved",
      "type": "event"
    },
    {
      "anonymous": false,
      "inputs": [
        {
          "indexed": true,
          "name": "previousOwner",
          "type": "address"
        }
      ],
      "name": "OwnershipRenounced",
      "type": "event"
    },
    {
      "anonymous": false,
      "inputs": [
        {
          "indexed": true,
          "name": "previousOwner",
          "type": "address"
        },
        {
          "indexed": true,
          "name": "newOwner",
          "type": "address"
        }
      ],
      "name": "OwnershipTransferred",
      "type": "event"
    },
    {
      "anonymous": false,
      "inputs": [
        {
          "indexed": true,
          "name": "owner",
          "type": "address"
        },
        {
          "indexed": true,
          "name": "spender",
          "type": "address"
        },
        {
          "indexed": false,
          "name": "value",
          "type": "uint256"
        }
      ],
      "name": "Approval",
      "type": "event"
    },
    {
      "anonymous": false,
      "inputs": [
        {
          "indexed": true,
          "name": "from",
          "type": "address"
        },
        {
          "indexed": true,
          "name": "to",
          "type": "address"
        },
        {
          "indexed": false,
          "name": "value",
          "type": "uint256"
        }
      ],
      "name": "Transfer",
      "type": "event"
    },
    {
      "constant": false,
      "inputs": [],
      "name": "setSuccess",
      "outputs": [
        {
          "name": "",
          "type": "bool"
        }
      ],
      "payable": false,
      "stateMutability": "nonpayable",
      "type": "function"
    },
    {
      "constant": false,
      "inputs": [
        {
          "name": "_date",
          "type": "uint256"
        }
      ],
      "name": "setICOEndDate",
      "outputs": [
        {
          "name": "",
          "type": "bool"
        }
      ],
      "payable": false,
      "stateMutability": "nonpayable",
      "type": "function"
    },
    {
      "constant": false,
      "inputs": [],
      "name": "mintCommunityRewardTokens",
      "outputs": [
        {
          "name": "",
          "type": "bool"
        }
      ],
      "payable": false,
      "stateMutability": "nonpayable",
      "type": "function"
    },
    {
      "constant": false,
      "inputs": [],
      "name": "mintReserveTokens",
      "outputs": [
        {
          "name": "",
          "type": "bool"
        }
      ],
      "payable": false,
      "stateMutability": "nonpayable",
      "type": "function"
    },
    {
      "constant": false,
      "inputs": [],
      "name": "mintTokensForTeam",
      "outputs": [
        {
          "name": "",
          "type": "bool"
        }
      ],
      "payable": false,
      "stateMutability": "nonpayable",
      "type": "function"
    },
    {
      "constant": false,
      "inputs": [],
      "name": "mintTokensForAdvisors",
      "outputs": [
        {
          "name": "",
          "type": "bool"
        }
      ],
      "payable": false,
      "stateMutability": "nonpayable",
      "type": "function"
    },
    {
      "constant": false,
      "inputs": [],
      "name": "mintTokensForInitialStrategicPartnerships",
      "outputs": [
        {
          "name": "",
          "type": "bool"
        }
      ],
      "payable": false,
      "stateMutability": "nonpayable",
      "type": "function"
    },
    {
      "constant": false,
      "inputs": [],
      "name": "mintTokensForStrategicPartnerships",
      "outputs": [
        {
          "name": "",
          "type": "bool"
        }
      ],
      "payable": false,
      "stateMutability": "nonpayable",
      "type": "function"
    }
  ],
  "bytecode": "0x60806040526000600560006101000a81548160ff0219169083151502179055506000600560016101000a81548160ff0219169083151502179055506000600760006101000a81548160ff02191690831515021790555033600360006101000a81548173ffffffffffffffffffffffffffffffffffffffff021916908373ffffffffffffffffffffffffffffffffffffffff160217905550620000be3369d3c21bcecceda1000000606402620000c4640100000000026401000000009004565b620003dd565b600073ffffffffffffffffffffffffffffffffffffffff168273ffffffffffffffffffffffffffffffffffffffff16141515156200016a576040517f08c379a00000000000000000000000000000000000000000000000000000000081526004018080602001828103825260108152602001807f496e76616c696420616464726573732e0000000000000000000000000000000081525060200191505060405180910390fd5b69d3c21bcecceda100000060c8026200019d82600154620003c0640100000000026200561b179091906401000000009004565b111515156200023a576040517f08c379a000000000000000000000000000000000000000000000000000000000815260040180806020018281038252603b8152602001807f536f727279206275742074686520746f74616c20737570706c792063616e277481526020017f2065786365656420746865206d6178696d756d20737570706c792e000000000081525060400191505060405180910390fd5b6200029b816000808573ffffffffffffffffffffffffffffffffffffffff1673ffffffffffffffffffffffffffffffffffffffff16815260200190815260200160002054620003c0640100000000026200561b179091906401000000009004565b6000808473ffffffffffffffffffffffffffffffffffffffff1673ffffffffffffffffffffffffffffffffffffffff168152602001908152602001600020819055506200030281600154620003c0640100000000026200561b179091906401000000009004565b6001819055508173ffffffffffffffffffffffffffffffffffffffff167f0f6798a560793a54c3bcfe86a93cde1e73087d944c0ea20544137d4121396885826040518082815260200191505060405180910390a28173ffffffffffffffffffffffffffffffffffffffff16600073ffffffffffffffffffffffffffffffffffffffff167fddf252ad1be2c89b69c2b068fc378daa952ba7f163c4a11628f55a4df523b3ef836040518082815260200191505060405180910390a35050565b60008183019050828110151515620003d457fe5b80905092915050565b61582f80620003ed6000396000f300608060405260043610610230576000357c0100000000000000000000000000000000000000000000000000000000900463ffffffff16806306fdde0314610235578063095ea7b3146102c55780630c69cc801461032a578063153a1f3e146103595780631785f53c1461041a57806318160ddd1461045d57806323b872dd1461048857806324d7806c1461050d57806328e665ef146105685780632a62738b146105975780632ff2e9dc146105c2578063313ce567146105ed57806332cb6b0c1461061e5780633bde5ba8146106495780633cd584d6146106785780633f4ba83a146106a757806342966c68146106be578063429b62e5146106eb57806343e91384146107465780635c975abb1461078b57806366188463146107ba578063704802751461081f57806370a0823114610862578063715018a6146108b9578063728b4293146108d057806372c174db146108ff57806377f9db331461092e5780637bfea0901461095d5780637f0aab321461098c5780638456cb59146109b757806388304abb146109ce5780638da5cb5b146109f957806391222f5414610a505780639154b07e14610a7b57806395d89b4114610aa65780639613252114610b3657806398e5026914610b65578063a8e6e77b14610b94578063a9059cbb14610bcf578063b348904a14610c34578063beff0b9514610c5f578063d73dd62314610c8a578063dd62ed3e14610cef578063e6575fb314610d66578063f1bca30f14610d95578063f2fde38b14610dd0575b600080fd5b34801561024157600080fd5b5061024a610e13565b6040518080602001828103825283818151815260200191508051906020019080838360005b8381101561028a57808201518184015260208101905061026f565b50505050905090810190601f1680156102b75780820380516001836020036101000a031916815260200191505b509250505060405180910390f35b3480156102d157600080fd5b50610310600480360381019080803573ffffffffffffffffffffffffffffffffffffffff16906020019092919080359060200190929190505050610e4c565b604051808215151515815260200191505060405180910390f35b34801561033657600080fd5b5061033f610fd8565b604051808215151515815260200191505060405180910390f35b34801561036557600080fd5b506104006004803603810190808035906020019082018035906020019080806020026020016040519081016040528093929190818152602001838360200280828437820191505050505050919291929080359060200190820180359060200190808060200260200160405190810160405280939291908181526020018383602002808284378201915050505050509192919290505050611179565b604051808215151515815260200191505060405180910390f35b34801561042657600080fd5b5061045b600480360381019080803573ffffffffffffffffffffffffffffffffffffffff16906020019092919050505061147c565b005b34801561046957600080fd5b50610472611835565b6040518082815260200191505060405180910390f35b34801561049457600080fd5b506104f3600480360381019080803573ffffffffffffffffffffffffffffffffffffffff169060200190929190803573ffffffffffffffffffffffffffffffffffffffff1690602001909291908035906020019092919050505061183f565b604051808215151515815260200191505060405180910390f35b34801561051957600080fd5b5061054e600480360381019080803573ffffffffffffffffffffffffffffffffffffffff1690602001909291905050506119cd565b604051808215151515815260200191505060405180910390f35b34801561057457600080fd5b5061057d611a83565b604051808215151515815260200191505060405180910390f35b3480156105a357600080fd5b506105ac611cc4565b6040518082815260200191505060405180910390f35b3480156105ce57600080fd5b506105d7611cca565b6040518082815260200191505060405180910390f35b3480156105f957600080fd5b50610602611cdb565b604051808260ff1660ff16815260200191505060405180910390f35b34801561062a57600080fd5b50610633611ce0565b6040518082815260200191505060405180910390f35b34801561065557600080fd5b5061065e611cf1565b604051808215151515815260200191505060405180910390f35b34801561068457600080fd5b5061068d611d04565b604051808215151515815260200191505060405180910390f35b3480156106b357600080fd5b506106bc611ea5565b005b3480156106ca57600080fd5b506106e960048036038101908080359060200190929190505050612015565b005b3480156106f757600080fd5b5061072c600480360381019080803573ffffffffffffffffffffffffffffffffffffffff1690602001909291905050506120cc565b604051808215151515815260200191505060405180910390f35b34801561075257600080fd5b50610771600480360381019080803590602001909291905050506120ec565b604051808215151515815260200191505060405180910390f35b34801561079757600080fd5b506107a06122ef565b604051808215151515815260200191505060405180910390f35b3480156107c657600080fd5b50610805600480360381019080803573ffffffffffffffffffffffffffffffffffffffff16906020019092919080359060200190929190505050612302565b604051808215151515815260200191505060405180910390f35b34801561082b57600080fd5b50610860600480360381019080803573ffffffffffffffffffffffffffffffffffffffff16906020019092919050505061248e565b005b34801561086e57600080fd5b506108a3600480360381019080803573ffffffffffffffffffffffffffffffffffffffff169060200190929190505050612848565b6040518082815260200191505060405180910390f35b3480156108c557600080fd5b506108ce612890565b005b3480156108dc57600080fd5b506108e5612995565b604051808215151515815260200191505060405180910390f35b34801561090b57600080fd5b50610914612ae3565b604051808215151515815260200191505060405180910390f35b34801561093a57600080fd5b50610943612dca565b604051808215151515815260200191505060405180910390f35b34801561096957600080fd5b5061097261300a565b604051808215151515815260200191505060405180910390f35b34801561099857600080fd5b506109a16132f1565b6040518082815260200191505060405180910390f35b3480156109c357600080fd5b506109cc613302565b005b3480156109da57600080fd5b506109e3613473565b6040518082815260200191505060405180910390f35b348015610a0557600080fd5b50610a0e613484565b604051808273ffffffffffffffffffffffffffffffffffffffff1673ffffffffffffffffffffffffffffffffffffffff16815260200191505060405180910390f35b348015610a5c57600080fd5b50610a656134aa565b6040518082815260200191505060405180910390f35b348015610a8757600080fd5b50610a906134bb565b6040518082815260200191505060405180910390f35b348015610ab257600080fd5b50610abb6134cc565b6040518080602001828103825283818151815260200191508051906020019080838360005b83811015610afb578082015181840152602081019050610ae0565b50505050905090810190601f168015610b285780820380516001836020036101000a031916815260200191505b509250505060405180910390f35b348015610b4257600080fd5b50610b4b613505565b604051808215151515815260200191505060405180910390f35b348015610b7157600080fd5b50610b7a613518565b604051808215151515815260200191505060405180910390f35b348015610ba057600080fd5b50610bcd6004803603810190808035906020019082018035906020019190919293919293905050506137ff565b005b348015610bdb57600080fd5b50610c1a600480360381019080803573ffffffffffffffffffffffffffffffffffffffff16906020019092919080359060200190929190505050613a84565b604051808215151515815260200191505060405180910390f35b348015610c4057600080fd5b50610c49613c10565b6040518082815260200191505060405180910390f35b348015610c6b57600080fd5b50610c74613c21565b6040518082815260200191505060405180910390f35b348015610c9657600080fd5b50610cd5600480360381019080803573ffffffffffffffffffffffffffffffffffffffff16906020019092919080359060200190929190505050613c32565b604051808215151515815260200191505060405180910390f35b348015610cfb57600080fd5b50610d50600480360381019080803573ffffffffffffffffffffffffffffffffffffffff169060200190929190803573ffffffffffffffffffffffffffffffffffffffff169060200190929190505050613dbe565b6040518082815260200191505060405180910390f35b348015610d7257600080fd5b50610d7b613e45565b604051808215151515815260200191505060405180910390f35b348015610da157600080fd5b50610dce60048036038101908080359060200190820180359060200191909192939192939050505061412c565b005b348015610ddc57600080fd5b50610e11600480360381019080803573ffffffffffffffffffffffffffffffffffffffff1690602001909291905050506143b0565b005b6040805190810160405280600d81526020017f46756c6372756d20546f6b656e0000000000000000000000000000000000000081525081565b600033600560009054906101000a900460ff1680610e775750600560019054906101000a900460ff16155b15610f2057610e85816119cd565b1515610f1f576040517f08c379a00000000000000000000000000000000000000000000000000000000081526004018080602001828103825260388152602001807f4f7065726174696f6e206e6f7420616c6c6f7765642e20546865207472616e7381526020017f66657220737461746520697320726573747269637465642e000000000000000081525060400191505060405180910390fd5b5b600073ffffffffffffffffffffffffffffffffffffffff168473ffffffffffffffffffffffffffffffffffffffff1614151515610fc5576040517f08c379a00000000000000000000000000000000000000000000000000000000081526004018080602001828103825260108152602001807f496e76616c696420616464726573732e0000000000000000000000000000000081525060200191505060405180910390fd5b610fcf8484614418565b91505092915050565b6000610fe3336119cd565b1515611057576040517f08c379a00000000000000000000000000000000000000000000000000000000081526004018080602001828103825260118152602001807f4163636573732069732064656e6965642e00000000000000000000000000000081525060200191505060405180910390fd5b600760009054906101000a900460ff161515611127576040517f08c379a000000000000000000000000000000000000000000000000000000000815260040180806020018281038252604e8152602001807f536f7272792c20796f752063616e2774206d696e74206174207468697320746981526020017f6d6520626563617573652074686520746172676574206861736e27742062656581526020017f6e2072656163686564207965742e00000000000000000000000000000000000081525060600191505060405180910390fd5b6111746040805190810160405280601081526020017f636f6d6d756e69747952657761726473000000000000000000000000000000008152503369d3c21bcecceda1000000600f0261450a565b905090565b6000806000611187336119cd565b15156111fb576040517f08c379a00000000000000000000000000000000000000000000000000000000081526004018080602001828103825260118152602001807f4163636573732069732064656e6965642e00000000000000000000000000000081525060200191505060405180910390fd5b83518551141515611274576040517f08c379a00000000000000000000000000000000000000000000000000000000081526004018080602001828103825260128152602001807f496e76616c6964206f7065726174696f6e2e000000000000000000000000000081525060200191505060405180910390fd5b61127d846146ae565b9150816000803373ffffffffffffffffffffffffffffffffffffffff1673ffffffffffffffffffffffffffffffffffffffff168152602001908152602001600020541015151561135b576040517f08c379a000000000000000000000000000000000000000000000000000000000815260040180806020018281038252603e8152602001807f596f7520646f6e277420686176652073756666696369656e742066756e64732081526020017f746f207472616e7366657220616d6f756e742074686174206c617267652e000081525060400191505060405180910390fd5b600090505b84518110156113af576113a1858281518110151561137a57fe5b90602001906020020151858381518110151561139257fe5b90602001906020020151613a84565b508080600101915050611360565b7f9c1a54ca5f41a3eaa7ccf54ca1d1b659718f8da05cb67ddefe376ddbe38511bd8585604051808060200180602001838103835285818151815260200191508051906020019060200280838360005b838110156114195780820151818401526020810190506113fe565b50505050905001838103825284818151815260200191508051906020019060200280838360005b8381101561145b578082015181840152602081019050611440565b5050505090500194505050505060405180910390a160019250505092915050565b611485336119cd565b15156114f9576040517f08c379a00000000000000000000000000000000000000000000000000000000081526004018080602001828103825260118152602001807f4163636573732069732064656e6965642e00000000000000000000000000000081525060200191505060405180910390fd5b600073ffffffffffffffffffffffffffffffffffffffff168173ffffffffffffffffffffffffffffffffffffffff161415151561159e576040517f08c379a00000000000000000000000000000000000000000000000000000000081526004018080602001828103825260108152602001807f496e76616c696420616464726573732e0000000000000000000000000000000081525060200191505060405180910390fd5b600460008273ffffffffffffffffffffffffffffffffffffffff1673ffffffffffffffffffffffffffffffffffffffff16815260200190815260200160002060009054906101000a900460ff161515611685576040517f08c379a00000000000000000000000000000000000000000000000000000000081526004018080602001828103825260248152602001807f5468697320616464726573732069736e277420616e2061646d696e697374726181526020017f746f722e0000000000000000000000000000000000000000000000000000000081525060400191505060405180910390fd5b600360009054906101000a900473ffffffffffffffffffffffffffffffffffffffff1673ffffffffffffffffffffffffffffffffffffffff168173ffffffffffffffffffffffffffffffffffffffff1614151515611797576040517f08c379a00000000000000000000000000000000000000000000000000000000081526004018080602001828103825260478152602001807f546865206f776e65722063616e6e6f74206265206164646564206f722072656d81526020017f6f76656420746f206f722066726f6d207468652061646d696e6973747261746f81526020017f72206c6973742e0000000000000000000000000000000000000000000000000081525060600191505060405180910390fd5b6000600460008373ffffffffffffffffffffffffffffffffffffffff1673ffffffffffffffffffffffffffffffffffffffff16815260200190815260200160002060006101000a81548160ff0219169083151502179055508073ffffffffffffffffffffffffffffffffffffffff167fa3b62bc36326052d97ea62d63c3d60308ed4c3ea8ac079dd8499f1e9c4f80c0f60405160405180910390a250565b6000600154905090565b600083600560009054906101000a900460ff168061186a5750600560019054906101000a900460ff16155b1561191357611878816119cd565b1515611912576040517f08c379a00000000000000000000000000000000000000000000000000000000081526004018080602001828103825260388152602001807f4f7065726174696f6e206e6f7420616c6c6f7765642e20546865207472616e7381526020017f66657220737461746520697320726573747269637465642e000000000000000081525060400191505060405180910390fd5b5b600073ffffffffffffffffffffffffffffffffffffffff168473ffffffffffffffffffffffffffffffffffffffff16141515156119b8576040517f08c379a00000000000000000000000000000000000000000000000000000000081526004018080602001828103825260108152602001807f496e76616c696420616464726573732e0000000000000000000000000000000081525060200191505060405180910390fd5b6119c3858585614707565b9150509392505050565b6000600360009054906101000a900473ffffffffffffffffffffffffffffffffffffffff1673ffffffffffffffffffffffffffffffffffffffff168273ffffffffffffffffffffffffffffffffffffffff161415611a2e5760019050611a7e565b600460008373ffffffffffffffffffffffffffffffffffffffff1673ffffffffffffffffffffffffffffffffffffffff16815260200190815260200160002060009054906101000a900460ff1690505b919050565b6000611a8e336119cd565b1515611b02576040517f08c379a00000000000000000000000000000000000000000000000000000000081526004018080602001828103825260118152602001807f4163636573732069732064656e6965642e00000000000000000000000000000081525060200191505060405180910390fd5b600560009054906101000a900460ff16151515611bad576040517f08c379a00000000000000000000000000000000000000000000000000000000081526004018080602001828103825260248152602001807f536f727279206275742074686520636f6e74726163742069736e27742070617581526020017f7365642e0000000000000000000000000000000000000000000000000000000081525060400191505060405180910390fd5b600560019054906101000a900460ff16151515611c58576040517f08c379a000000000000000000000000000000000000000000000000000000000815260040180806020018281038252603c8152602001807f496e76616c6964206f7065726174696f6e2e20546865207472616e736665722081526020017f7374617465206973206e6f206d6f726520726573747269637465642e0000000081525060400191505060405180910390fd5b6001600560016101000a81548160ff0219169083151502179055507fcbdf0fab2b7a1540009af97a79f3ea7944943c175155b588639cec284eebc804600560019054906101000a900460ff16604051808215151515815260200191505060405180910390a16001905090565b60065481565b69d3c21bcecceda100000060640281565b601281565b69d3c21bcecceda100000060c80281565b600760009054906101000a900460ff1681565b6000611d0f336119cd565b1515611d83576040517f08c379a00000000000000000000000000000000000000000000000000000000081526004018080602001828103825260118152602001807f4163636573732069732064656e6965642e00000000000000000000000000000081525060200191505060405180910390fd5b600760009054906101000a900460ff161515611e53576040517f08c379a000000000000000000000000000000000000000000000000000000000815260040180806020018281038252604e8152602001807f536f7272792c20796f752063616e2774206d696e74206174207468697320746981526020017f6d6520626563617573652074686520746172676574206861736e27742062656581526020017f6e2072656163686564207965742e00000000000000000000000000000000000081525060600191505060405180910390fd5b611ea06040805190810160405280601881526020017f696e697469616c537472617465676963506172746e65727300000000000000008152503369d3c21bcecceda1000000600a0261450a565b905090565b611eae336119cd565b1515611f22576040517f08c379a00000000000000000000000000000000000000000000000000000000081526004018080602001828103825260118152602001807f4163636573732069732064656e6965642e00000000000000000000000000000081525060200191505060405180910390fd5b600560009054906101000a900460ff161515611fcc576040517f08c379a00000000000000000000000000000000000000000000000000000000081526004018080602001828103825260218152602001807f536f727279206275742074686520636f6e74726163742069732070617573656481526020017f2e0000000000000000000000000000000000000000000000000000000000000081525060400191505060405180910390fd5b6000600560006101000a81548160ff0219169083151502179055507fa45f47fdea8a1efdd9029a5691c7f759c32b7c698632b563573e155625d1693360405160405180910390a1565b600560009054906101000a900460ff161515156120c0576040517f08c379a00000000000000000000000000000000000000000000000000000000081526004018080602001828103825260248152602001807f536f727279206275742074686520636f6e74726163742069736e27742070617581526020017f7365642e0000000000000000000000000000000000000000000000000000000081525060400191505060405180910390fd5b6120c981614ac2565b50565b60046020528060005260406000206000915054906101000a900460ff1681565b60006120f7336119cd565b151561216b576040517f08c379a00000000000000000000000000000000000000000000000000000000081526004018080602001828103825260118152602001807f4163636573732069732064656e6965642e00000000000000000000000000000081525060200191505060405180910390fd5b600060065414151561220b576040517f08c379a00000000000000000000000000000000000000000000000000000000081526004018080602001828103825260218152602001807f5468652049434f20656e6420646174652077617320616c72656164792073657481526020017f2e0000000000000000000000000000000000000000000000000000000000000081525060400191505060405180910390fd5b42821115156122a8576040517f08c379a00000000000000000000000000000000000000000000000000000000081526004018080602001828103825260278152602001807f5468652049434f20656e642064617465206d75737420626520696e207468652081526020017f6675747572652e0000000000000000000000000000000000000000000000000081525060400191505060405180910390fd5b816006819055507f8af2dc49ef865a055c56e19964fd4e43183a7143e12813a8246daef30a2b6e0f826040518082815260200191505060405180910390a160019050919050565b600560009054906101000a900460ff1681565b600033600560009054906101000a900460ff168061232d5750600560019054906101000a900460ff16155b156123d65761233b816119cd565b15156123d5576040517f08c379a00000000000000000000000000000000000000000000000000000000081526004018080602001828103825260388152602001807f4f7065726174696f6e206e6f7420616c6c6f7765642e20546865207472616e7381526020017f66657220737461746520697320726573747269637465642e000000000000000081525060400191505060405180910390fd5b5b600073ffffffffffffffffffffffffffffffffffffffff168473ffffffffffffffffffffffffffffffffffffffff161415151561247b576040517f08c379a00000000000000000000000000000000000000000000000000000000081526004018080602001828103825260108152602001807f496e76616c696420616464726573732e0000000000000000000000000000000081525060200191505060405180910390fd5b6124858484614acf565b91505092915050565b612497336119cd565b151561250b576040517f08c379a00000000000000000000000000000000000000000000000000000000081526004018080602001828103825260118152602001807f4163636573732069732064656e6965642e00000000000000000000000000000081525060200191505060405180910390fd5b600073ffffffffffffffffffffffffffffffffffffffff168173ffffffffffffffffffffffffffffffffffffffff16141515156125b0576040517f08c379a00000000000000000000000000000000000000000000000000000000081526004018080602001828103825260108152602001807f496e76616c696420616464726573732e0000000000000000000000000000000081525060200191505060405180910390fd5b600460008273ffffffffffffffffffffffffffffffffffffffff1673ffffffffffffffffffffffffffffffffffffffff16815260200190815260200160002060009054906101000a900460ff16151515612698576040517f08c379a00000000000000000000000000000000000000000000000000000000081526004018080602001828103825260298152602001807f54686973206164647265737320697320616c726561647920616e2061646d696e81526020017f6973747261746f722e000000000000000000000000000000000000000000000081525060400191505060405180910390fd5b600360009054906101000a900473ffffffffffffffffffffffffffffffffffffffff1673ffffffffffffffffffffffffffffffffffffffff168173ffffffffffffffffffffffffffffffffffffffff16141515156127aa576040517f08c379a00000000000000000000000000000000000000000000000000000000081526004018080602001828103825260478152602001807f546865206f776e65722063616e6e6f74206265206164646564206f722072656d81526020017f6f76656420746f206f722066726f6d207468652061646d696e6973747261746f81526020017f72206c6973742e0000000000000000000000000000000000000000000000000081525060600191505060405180910390fd5b6001600460008373ffffffffffffffffffffffffffffffffffffffff1673ffffffffffffffffffffffffffffffffffffffff16815260200190815260200160002060006101000a81548160ff0219169083151502179055508073ffffffffffffffffffffffffffffffffffffffff167f44d6d25963f097ad14f29f06854a01f575648a1ef82f30e562ccd3889717e33960405160405180910390a250565b60008060008373ffffffffffffffffffffffffffffffffffffffff1673ffffffffffffffffffffffffffffffffffffffff168152602001908152602001600020549050919050565b600360009054906101000a900473ffffffffffffffffffffffffffffffffffffffff1673ffffffffffffffffffffffffffffffffffffffff163373ffffffffffffffffffffffffffffffffffffffff161415156128ec57600080fd5b600360009054906101000a900473ffffffffffffffffffffffffffffffffffffffff1673ffffffffffffffffffffffffffffffffffffffff167ff8df31144d9c2f0f6b59d69b8b98abd5459d07f2742c4df920b25aae33c6482060405160405180910390a26000600360006101000a81548173ffffffffffffffffffffffffffffffffffffffff021916908373ffffffffffffffffffffffffffffffffffffffff160217905550565b60006129a0336119cd565b1515612a14576040517f08c379a00000000000000000000000000000000000000000000000000000000081526004018080602001828103825260118152602001807f4163636573732069732064656e6965642e00000000000000000000000000000081525060200191505060405180910390fd5b600760009054906101000a900460ff16151515612a99576040517f08c379a00000000000000000000000000000000000000000000000000000000081526004018080602001828103825260118152602001807f4163636573732069732064656e6965642e00000000000000000000000000000081525060200191505060405180910390fd5b6001600760006101000a81548160ff0219169083151502179055507f8735407ca1ae8b74dd5770f504b2e8150f9a70d8eebb2ead3961051c814bda6c60405160405180910390a190565b6000612aee336119cd565b1515612b62576040517f08c379a00000000000000000000000000000000000000000000000000000000081526004018080602001828103825260118152602001807f4163636573732069732064656e6965642e00000000000000000000000000000081525060200191505060405180910390fd5b600760009054906101000a900460ff161515612c32576040517f08c379a000000000000000000000000000000000000000000000000000000000815260040180806020018281038252604e8152602001807f536f7272792c20796f752063616e2774206d696e74206174207468697320746981526020017f6d6520626563617573652074686520746172676574206861736e27742062656581526020017f6e2072656163686564207965742e00000000000000000000000000000000000081525060600191505060405180910390fd5b600060065414151515612cd3576040517f08c379a000000000000000000000000000000000000000000000000000000000815260040180806020018281038252603f8152602001807f596f75206e65656420746f2073706563696679207468652049434f20656e642081526020017f64617465206265666f7265206d696e74696e672074686520746f6b656e732e0081525060400191505060405180910390fd5b6301e133806006540142111515612d78576040517f08c379a00000000000000000000000000000000000000000000000000000000081526004018080602001828103825260398152602001807f4163636573732069732064656e6965642c206974277320746f6f206561726c7981526020017f20746f206d696e742061647669736f727920746f6b656e732e0000000000000081525060400191505060405180910390fd5b612dc56040805190810160405280600881526020017f61647669736f72730000000000000000000000000000000000000000000000008152503369d3c21bcecceda100000060080261450a565b905090565b6000612dd5336119cd565b1515612e49576040517f08c379a00000000000000000000000000000000000000000000000000000000081526004018080602001828103825260118152602001807f4163636573732069732064656e6965642e00000000000000000000000000000081525060200191505060405180910390fd5b600560009054906101000a900460ff16151515612ef4576040517f08c379a00000000000000000000000000000000000000000000000000000000081526004018080602001828103825260248152602001807f536f727279206275742074686520636f6e74726163742069736e27742070617581526020017f7365642e0000000000000000000000000000000000000000000000000000000081525060400191505060405180910390fd5b600560019054906101000a900460ff161515612f9e576040517f08c379a000000000000000000000000000000000000000000000000000000000815260040180806020018281038252603c8152602001807f496e76616c6964206f7065726174696f6e2e20546865207472616e736665722081526020017f737461746520697320616c726561647920726573747269637465642e0000000081525060400191505060405180910390fd5b6000600560016101000a81548160ff0219169083151502179055507fcbdf0fab2b7a1540009af97a79f3ea7944943c175155b588639cec284eebc804600560019054906101000a900460ff16604051808215151515815260200191505060405180910390a16001905090565b6000613015336119cd565b1515613089576040517f08c379a00000000000000000000000000000000000000000000000000000000081526004018080602001828103825260118152602001807f4163636573732069732064656e6965642e00000000000000000000000000000081525060200191505060405180910390fd5b600760009054906101000a900460ff161515613159576040517f08c379a000000000000000000000000000000000000000000000000000000000815260040180806020018281038252604e8152602001807f536f7272792c20796f752063616e2774206d696e74206174207468697320746981526020017f6d6520626563617573652074686520746172676574206861736e27742062656581526020017f6e2072656163686564207965742e00000000000000000000000000000000000081525060600191505060405180910390fd5b6000600654141515156131fa576040517f08c379a000000000000000000000000000000000000000000000000000000000815260040180806020018281038252603f8152602001807f596f75206e65656420746f2073706563696679207468652049434f20656e642081526020017f64617465206265666f7265206d696e74696e672074686520746f6b656e732e0081525060400191505060405180910390fd5b6303c26700600654014211151561329f576040517f08c379a00000000000000000000000000000000000000000000000000000000081526004018080602001828103825260358152602001807f4163636573732069732064656e6965642c206974277320746f6f206561726c7981526020017f20746f206d696e74207465616d20746f6b656e732e000000000000000000000081525060400191505060405180910390fd5b6132ec6040805190810160405280600481526020017f7465616d000000000000000000000000000000000000000000000000000000008152503369d3c21bcecceda100000060280261450a565b905090565b69d3c21bcecceda100000060080281565b61330b336119cd565b151561337f576040517f08c379a00000000000000000000000000000000000000000000000000000000081526004018080602001828103825260118152602001807f4163636573732069732064656e6965642e00000000000000000000000000000081525060200191505060405180910390fd5b600560009054906101000a900460ff1615151561342a576040517f08c379a00000000000000000000000000000000000000000000000000000000081526004018080602001828103825260248152602001807f536f727279206275742074686520636f6e74726163742069736e27742070617581526020017f7365642e0000000000000000000000000000000000000000000000000000000081525060400191505060405180910390fd5b6001600560006101000a81548160ff0219169083151502179055507f9e87fac88ff661f02d44f95383c817fece4bce600a3dab7a54406878b965e75260405160405180910390a1565b69d3c21bcecceda100000060110281565b600360009054906101000a900473ffffffffffffffffffffffffffffffffffffffff1681565b69d3c21bcecceda1000000600f0281565b69d3c21bcecceda1000000600a0281565b6040805190810160405280600481526020017f46554c430000000000000000000000000000000000000000000000000000000081525081565b600560019054906101000a900460ff1681565b6000613523336119cd565b1515613597576040517f08c379a00000000000000000000000000000000000000000000000000000000081526004018080602001828103825260118152602001807f4163636573732069732064656e6965642e00000000000000000000000000000081525060200191505060405180910390fd5b600760009054906101000a900460ff161515613667576040517f08c379a000000000000000000000000000000000000000000000000000000000815260040180806020018281038252604e8152602001807f536f7272792c20796f752063616e2774206d696e74206174207468697320746981526020017f6d6520626563617573652074686520746172676574206861736e27742062656581526020017f6e2072656163686564207965742e00000000000000000000000000000000000081525060600191505060405180910390fd5b600060065414151515613708576040517f08c379a000000000000000000000000000000000000000000000000000000000815260040180806020018281038252603f8152602001807f596f75206e65656420746f2073706563696679207468652049434f20656e642081526020017f64617465206265666f7265206d696e74696e672074686520746f6b656e732e0081525060400191505060405180910390fd5b6302d2760060065401421115156137ad576040517f08c379a000000000000000000000000000000000000000000000000000000000815260040180806020018281038252603c8152602001807f4163636573732069732064656e6965642c206974277320746f6f206561726c7981526020017f20746f206d696e7420746865207265736572766520746f6b656e732e0000000081525060400191505060405180910390fd5b6137fa6040805190810160405280601281526020017f6f7065726174696f6e616c5265736572766500000000000000000000000000008152503369d3c21bcecceda100000060110261450a565b905090565b60008061380b336119cd565b151561387f576040517f08c379a00000000000000000000000000000000000000000000000000000000081526004018080602001828103825260118152602001807f4163636573732069732064656e6965642e00000000000000000000000000000081525060200191505060405180910390fd5b600091505b838390508260ff161015613a7e5783838360ff1681811015156138a357fe5b9050602002013573ffffffffffffffffffffffffffffffffffffffff169050600073ffffffffffffffffffffffffffffffffffffffff168173ffffffffffffffffffffffffffffffffffffffff16141580156139495750600460008273ffffffffffffffffffffffffffffffffffffffff1673ffffffffffffffffffffffffffffffffffffffff16815260200190815260200160002060009054906101000a900460ff16155b80156139a35750600360009054906101000a900473ffffffffffffffffffffffffffffffffffffffff1673ffffffffffffffffffffffffffffffffffffffff168173ffffffffffffffffffffffffffffffffffffffff1614155b15613a71576001600460008373ffffffffffffffffffffffffffffffffffffffff1673ffffffffffffffffffffffffffffffffffffffff16815260200190815260200160002060006101000a81548160ff02191690831515021790555083838360ff168181101515613a1157fe5b9050602002013573ffffffffffffffffffffffffffffffffffffffff1673ffffffffffffffffffffffffffffffffffffffff167f44d6d25963f097ad14f29f06854a01f575648a1ef82f30e562ccd3889717e33960405160405180910390a25b8180600101925050613884565b50505050565b600033600560009054906101000a900460ff1680613aaf5750600560019054906101000a900460ff16155b15613b5857613abd816119cd565b1515613b57576040517f08c379a00000000000000000000000000000000000000000000000000000000081526004018080602001828103825260388152602001807f4f7065726174696f6e206e6f7420616c6c6f7765642e20546865207472616e7381526020017f66657220737461746520697320726573747269637465642e000000000000000081525060400191505060405180910390fd5b5b600073ffffffffffffffffffffffffffffffffffffffff168473ffffffffffffffffffffffffffffffffffffffff1614151515613bfd576040517f08c379a00000000000000000000000000000000000000000000000000000000081526004018080602001828103825260108152602001807f496e76616c696420616464726573732e0000000000000000000000000000000081525060200191505060405180910390fd5b613c078484614d61565b91505092915050565b69d3c21bcecceda1000000600a0281565b69d3c21bcecceda100000060280281565b600033600560009054906101000a900460ff1680613c5d5750600560019054906101000a900460ff16155b15613d0657613c6b816119cd565b1515613d05576040517f08c379a00000000000000000000000000000000000000000000000000000000081526004018080602001828103825260388152602001807f4f7065726174696f6e206e6f7420616c6c6f7765642e20546865207472616e7381526020017f66657220737461746520697320726573747269637465642e000000000000000081525060400191505060405180910390fd5b5b600073ffffffffffffffffffffffffffffffffffffffff168473ffffffffffffffffffffffffffffffffffffffff1614151515613dab576040517f08c379a00000000000000000000000000000000000000000000000000000000081526004018080602001828103825260108152602001807f496e76616c696420616464726573732e0000000000000000000000000000000081525060200191505060405180910390fd5b613db58484614f81565b91505092915050565b6000600260008473ffffffffffffffffffffffffffffffffffffffff1673ffffffffffffffffffffffffffffffffffffffff16815260200190815260200160002060008373ffffffffffffffffffffffffffffffffffffffff1673ffffffffffffffffffffffffffffffffffffffff16815260200190815260200160002054905092915050565b6000613e50336119cd565b1515613ec4576040517f08c379a00000000000000000000000000000000000000000000000000000000081526004018080602001828103825260118152602001807f4163636573732069732064656e6965642e00000000000000000000000000000081525060200191505060405180910390fd5b600760009054906101000a900460ff161515613f94576040517f08c379a000000000000000000000000000000000000000000000000000000000815260040180806020018281038252604e8152602001807f536f7272792c20796f752063616e2774206d696e74206174207468697320746981526020017f6d6520626563617573652074686520746172676574206861736e27742062656581526020017f6e2072656163686564207965742e00000000000000000000000000000000000081525060600191505060405180910390fd5b600060065414151515614035576040517f08c379a000000000000000000000000000000000000000000000000000000000815260040180806020018281038252603f8152602001807f596f75206e65656420746f2073706563696679207468652049434f20656e642081526020017f64617465206265666f7265206d696e74696e672074686520746f6b656e732e0081525060400191505060405180910390fd5b6303c2670060065401421115156140da576040517f08c379a00000000000000000000000000000000000000000000000000000000081526004018080602001828103825260408152602001807f4163636573732069732064656e6965642c206974277320746f6f206561726c7981526020017f20746f206d696e742074686520706172746e65727368697020746f6b656e732e81525060400191505060405180910390fd5b6141276040805190810160405280601181526020017f737472617465676963506172746e6572730000000000000000000000000000008152503369d3c21bcecceda1000000600a0261450a565b905090565b600080614138336119cd565b15156141ac576040517f08c379a00000000000000000000000000000000000000000000000000000000081526004018080602001828103825260118152602001807f4163636573732069732064656e6965642e00000000000000000000000000000081525060200191505060405180910390fd5b600091505b838390508260ff1610156143aa5783838360ff1681811015156141d057fe5b9050602002013573ffffffffffffffffffffffffffffffffffffffff169050600073ffffffffffffffffffffffffffffffffffffffff168173ffffffffffffffffffffffffffffffffffffffff16141580156142755750600460008273ffffffffffffffffffffffffffffffffffffffff1673ffffffffffffffffffffffffffffffffffffffff16815260200190815260200160002060009054906101000a900460ff165b80156142cf5750600360009054906101000a900473ffffffffffffffffffffffffffffffffffffffff1673ffffffffffffffffffffffffffffffffffffffff168173ffffffffffffffffffffffffffffffffffffffff1614155b1561439d576000600460008373ffffffffffffffffffffffffffffffffffffffff1673ffffffffffffffffffffffffffffffffffffffff16815260200190815260200160002060006101000a81548160ff02191690831515021790555083838360ff16818110151561433d57fe5b9050602002013573ffffffffffffffffffffffffffffffffffffffff1673ffffffffffffffffffffffffffffffffffffffff167fa3b62bc36326052d97ea62d63c3d60308ed4c3ea8ac079dd8499f1e9c4f80c0f60405160405180910390a25b81806001019250506141b1565b50505050565b600360009054906101000a900473ffffffffffffffffffffffffffffffffffffffff1673ffffffffffffffffffffffffffffffffffffffff163373ffffffffffffffffffffffffffffffffffffffff1614151561440c57600080fd5b6144158161517d565b50565b600081600260003373ffffffffffffffffffffffffffffffffffffffff1673ffffffffffffffffffffffffffffffffffffffff16815260200190815260200160002060008573ffffffffffffffffffffffffffffffffffffffff1673ffffffffffffffffffffffffffffffffffffffff168152602001908152602001600020819055508273ffffffffffffffffffffffffffffffffffffffff163373ffffffffffffffffffffffffffffffffffffffff167f8c5be1e5ebec7d5bd14f71427d1e84f3dd0314c0f7b2291e5b200ac8c7c3b925846040518082815260200191505060405180910390a36001905092915050565b6000600560009054906101000a900460ff161515156145b7576040517f08c379a00000000000000000000000000000000000000000000000000000000081526004018080602001828103825260248152602001807f536f727279206275742074686520636f6e74726163742069736e27742070617581526020017f7365642e0000000000000000000000000000000000000000000000000000000081525060400191505060405180910390fd5b83600860006145c583615279565b6000191660001916815260200190815260200160002060009054906101000a900460ff161561465c576040517f08c379a000000000000000000000000000000000000000000000000000000000815260040180806020018281038252601f8152602001807f4475706c6963617465206d696e74696e67206b657920737570706c6965642e0081525060200191505060405180910390fd5b6146668484615351565b60016008600061467588615279565b6000191660001916815260200190815260200160002060006101000a81548160ff02191690831515021790555060019150509392505050565b6000806000809150600090505b83518110156146fd576146ee84828151811015156146d557fe5b906020019060200201518361561b90919063ffffffff16565b915080806001019150506146bb565b8192505050919050565b60008060008573ffffffffffffffffffffffffffffffffffffffff1673ffffffffffffffffffffffffffffffffffffffff16815260200190815260200160002054821115151561475657600080fd5b600260008573ffffffffffffffffffffffffffffffffffffffff1673ffffffffffffffffffffffffffffffffffffffff16815260200190815260200160002060003373ffffffffffffffffffffffffffffffffffffffff1673ffffffffffffffffffffffffffffffffffffffff1681526020019081526020016000205482111515156147e157600080fd5b600073ffffffffffffffffffffffffffffffffffffffff168373ffffffffffffffffffffffffffffffffffffffff161415151561481d57600080fd5b61486e826000808773ffffffffffffffffffffffffffffffffffffffff1673ffffffffffffffffffffffffffffffffffffffff1681526020019081526020016000205461563790919063ffffffff16565b6000808673ffffffffffffffffffffffffffffffffffffffff1673ffffffffffffffffffffffffffffffffffffffff16815260200190815260200160002081905550614901826000808673ffffffffffffffffffffffffffffffffffffffff1673ffffffffffffffffffffffffffffffffffffffff1681526020019081526020016000205461561b90919063ffffffff16565b6000808573ffffffffffffffffffffffffffffffffffffffff1673ffffffffffffffffffffffffffffffffffffffff168152602001908152602001600020819055506149d282600260008773ffffffffffffffffffffffffffffffffffffffff1673ffffffffffffffffffffffffffffffffffffffff16815260200190815260200160002060003373ffffffffffffffffffffffffffffffffffffffff1673ffffffffffffffffffffffffffffffffffffffff1681526020019081526020016000205461563790919063ffffffff16565b600260008673ffffffffffffffffffffffffffffffffffffffff1673ffffffffffffffffffffffffffffffffffffffff16815260200190815260200160002060003373ffffffffffffffffffffffffffffffffffffffff1673ffffffffffffffffffffffffffffffffffffffff168152602001908152602001600020819055508273ffffffffffffffffffffffffffffffffffffffff168473ffffffffffffffffffffffffffffffffffffffff167fddf252ad1be2c89b69c2b068fc378daa952ba7f163c4a11628f55a4df523b3ef846040518082815260200191505060405180910390a3600190509392505050565b614acc3382615650565b50565b600080600260003373ffffffffffffffffffffffffffffffffffffffff1673ffffffffffffffffffffffffffffffffffffffff16815260200190815260200160002060008573ffffffffffffffffffffffffffffffffffffffff1673ffffffffffffffffffffffffffffffffffffffff1681526020019081526020016000205490508083101515614be1576000600260003373ffffffffffffffffffffffffffffffffffffffff1673ffffffffffffffffffffffffffffffffffffffff16815260200190815260200160002060008673ffffffffffffffffffffffffffffffffffffffff1673ffffffffffffffffffffffffffffffffffffffff16815260200190815260200160002081905550614c75565b614bf4838261563790919063ffffffff16565b600260003373ffffffffffffffffffffffffffffffffffffffff1673ffffffffffffffffffffffffffffffffffffffff16815260200190815260200160002060008673ffffffffffffffffffffffffffffffffffffffff1673ffffffffffffffffffffffffffffffffffffffff168152602001908152602001600020819055505b8373ffffffffffffffffffffffffffffffffffffffff163373ffffffffffffffffffffffffffffffffffffffff167f8c5be1e5ebec7d5bd14f71427d1e84f3dd0314c0f7b2291e5b200ac8c7c3b925600260003373ffffffffffffffffffffffffffffffffffffffff1673ffffffffffffffffffffffffffffffffffffffff16815260200190815260200160002060008873ffffffffffffffffffffffffffffffffffffffff1673ffffffffffffffffffffffffffffffffffffffff168152602001908152602001600020546040518082815260200191505060405180910390a3600191505092915050565b60008060003373ffffffffffffffffffffffffffffffffffffffff1673ffffffffffffffffffffffffffffffffffffffff168152602001908152602001600020548211151515614db057600080fd5b600073ffffffffffffffffffffffffffffffffffffffff168373ffffffffffffffffffffffffffffffffffffffff1614151515614dec57600080fd5b614e3d826000803373ffffffffffffffffffffffffffffffffffffffff1673ffffffffffffffffffffffffffffffffffffffff1681526020019081526020016000205461563790919063ffffffff16565b6000803373ffffffffffffffffffffffffffffffffffffffff1673ffffffffffffffffffffffffffffffffffffffff16815260200190815260200160002081905550614ed0826000808673ffffffffffffffffffffffffffffffffffffffff1673ffffffffffffffffffffffffffffffffffffffff1681526020019081526020016000205461561b90919063ffffffff16565b6000808573ffffffffffffffffffffffffffffffffffffffff1673ffffffffffffffffffffffffffffffffffffffff168152602001908152602001600020819055508273ffffffffffffffffffffffffffffffffffffffff163373ffffffffffffffffffffffffffffffffffffffff167fddf252ad1be2c89b69c2b068fc378daa952ba7f163c4a11628f55a4df523b3ef846040518082815260200191505060405180910390a36001905092915050565b600061501282600260003373ffffffffffffffffffffffffffffffffffffffff1673ffffffffffffffffffffffffffffffffffffffff16815260200190815260200160002060008673ffffffffffffffffffffffffffffffffffffffff1673ffffffffffffffffffffffffffffffffffffffff1681526020019081526020016000205461561b90919063ffffffff16565b600260003373ffffffffffffffffffffffffffffffffffffffff1673ffffffffffffffffffffffffffffffffffffffff16815260200190815260200160002060008573ffffffffffffffffffffffffffffffffffffffff1673ffffffffffffffffffffffffffffffffffffffff168152602001908152602001600020819055508273ffffffffffffffffffffffffffffffffffffffff163373ffffffffffffffffffffffffffffffffffffffff167f8c5be1e5ebec7d5bd14f71427d1e84f3dd0314c0f7b2291e5b200ac8c7c3b925600260003373ffffffffffffffffffffffffffffffffffffffff1673ffffffffffffffffffffffffffffffffffffffff16815260200190815260200160002060008773ffffffffffffffffffffffffffffffffffffffff1673ffffffffffffffffffffffffffffffffffffffff168152602001908152602001600020546040518082815260200191505060405180910390a36001905092915050565b600073ffffffffffffffffffffffffffffffffffffffff168173ffffffffffffffffffffffffffffffffffffffff16141515156151b957600080fd5b8073ffffffffffffffffffffffffffffffffffffffff16600360009054906101000a900473ffffffffffffffffffffffffffffffffffffffff1673ffffffffffffffffffffffffffffffffffffffff167f8be0079c531659141344cd1fd0a4f28419497f9722a3daafe3b4186f6b6457e060405160405180910390a380600360006101000a81548173ffffffffffffffffffffffffffffffffffffffff021916908373ffffffffffffffffffffffffffffffffffffffff16021790555050565b6000816040516020018082805190602001908083835b6020831015156152b4578051825260208201915060208101905060208303925061528f565b6001836020036101000a0380198251168184511680821785525050505050509050019150506040516020818303038152906040526040518082805190602001908083835b60208310151561531d57805182526020820191506020810190506020830392506152f8565b6001836020036101000a03801982511681845116808217855250505050505090500191505060405180910390209050919050565b600073ffffffffffffffffffffffffffffffffffffffff168273ffffffffffffffffffffffffffffffffffffffff16141515156153f6576040517f08c379a00000000000000000000000000000000000000000000000000000000081526004018080602001828103825260108152602001807f496e76616c696420616464726573732e0000000000000000000000000000000081525060200191505060405180910390fd5b69d3c21bcecceda100000060c8026154198260015461561b90919063ffffffff16565b111515156154b5576040517f08c379a000000000000000000000000000000000000000000000000000000000815260040180806020018281038252603b8152602001807f536f727279206275742074686520746f74616c20737570706c792063616e277481526020017f2065786365656420746865206d6178696d756d20737570706c792e000000000081525060400191505060405180910390fd5b615506816000808573ffffffffffffffffffffffffffffffffffffffff1673ffffffffffffffffffffffffffffffffffffffff1681526020019081526020016000205461561b90919063ffffffff16565b6000808473ffffffffffffffffffffffffffffffffffffffff1673ffffffffffffffffffffffffffffffffffffffff1681526020019081526020016000208190555061555d8160015461561b90919063ffffffff16565b6001819055508173ffffffffffffffffffffffffffffffffffffffff167f0f6798a560793a54c3bcfe86a93cde1e73087d944c0ea20544137d4121396885826040518082815260200191505060405180910390a28173ffffffffffffffffffffffffffffffffffffffff16600073ffffffffffffffffffffffffffffffffffffffff167fddf252ad1be2c89b69c2b068fc378daa952ba7f163c4a11628f55a4df523b3ef836040518082815260200191505060405180910390a35050565b6000818301905082811015151561562e57fe5b80905092915050565b600082821115151561564557fe5b818303905092915050565b6000808373ffffffffffffffffffffffffffffffffffffffff1673ffffffffffffffffffffffffffffffffffffffff16815260200190815260200160002054811115151561569d57600080fd5b6156ee816000808573ffffffffffffffffffffffffffffffffffffffff1673ffffffffffffffffffffffffffffffffffffffff1681526020019081526020016000205461563790919063ffffffff16565b6000808473ffffffffffffffffffffffffffffffffffffffff1673ffffffffffffffffffffffffffffffffffffffff168152602001908152602001600020819055506157458160015461563790919063ffffffff16565b6001819055508173ffffffffffffffffffffffffffffffffffffffff167fcc16f5dbb4873280815c1ee09dbd06736cffcc184412cf7a71a0fdb75d397ca5826040518082815260200191505060405180910390a2600073ffffffffffffffffffffffffffffffffffffffff168273ffffffffffffffffffffffffffffffffffffffff167fddf252ad1be2c89b69c2b068fc378daa952ba7f163c4a11628f55a4df523b3ef836040518082815260200191505060405180910390a350505600a165627a7a72305820dbaba410c9b5a15f5b917f893e8fdc382492d9bb478f135ae19b018922876fc90029",
  "source": "/*\nCopyright 2018 Binod Nirvan @ Accept (http://accept.io)\nLicensed under the Apache License, Version 2.0 (the \"License\");\nyou may not use this file except in compliance with the License.\nYou may obtain a copy of the License at\n    http://www.apache.org/licenses/LICENSE-2.0\nUnless required by applicable law or agreed to in writing, software\ndistributed under the License is distributed on an \"AS IS\" BASIS,\nWITHOUT WARRANTIES OR CONDITIONS OF ANY KIND, either express or implied.\nSee the License for the specific language governing permissions and\nlimitations under the License.\n*/\n\npragma solidity ^0.4.24;\n\nimport \"./FulcrumTokenBase.sol\";\n\n\n///@title Fulcrum Token\n///@author Binod Nirvan\n///@notice The FULC is our native settlements token used across our marketplace, \n///and will enable many important functions within the Accept global marketplace including: \n///A medium of exchange (settlements) for Accept.io buyers and sellers A consumptive use (utility) token \n///for marketplace users to access premium features in the Accept.io DApp An incentive for users to help \n///improve the Accept Marketplace and contribute to the long-term development of Accept.io\ncontract FulcrumToken is FulcrumTokenBase {\n  //solhint-disable not-rely-on-time\n  //solium-disable security/no-block-members\n\n  uint256 public icoEndDate;\n\n  uint256 public constant ALLOCATION_FOR_COMMUNITY_REWARDS = 15 * MILLION;\n  uint256 public constant ALLOCATION_FOR_RESERVE = 17 * MILLION;\n  uint256 public constant ALLOCATION_FOR_TEAM = 40 * MILLION;\n  uint256 public constant ALLOCATION_FOR_ADVISORS = 8 * MILLION;\n  uint256 public constant ALLOCATION_FOR_INITIAL_STRATEGIC_PARTNERSHIPS = 10 * MILLION;\n  uint256 public constant ALLOCATION_FOR_STRATEGIC_PARTNERSHIPS = 10 * MILLION;\n\n  bool public targetReached = false;\n\n  mapping(bytes32 => bool) private mintingList;\n\n  event ICOEndDateSet(uint256 _date);\n  event TargetReached();\n\n  ///@notice Checks if the minting for the supplied key was already performed.\n  ///@param _key The key or category name of minting.\n  modifier whenNotMinted(string _key) {\n    if(mintingList[computeHash(_key)]) {\n      revert(\"Duplicate minting key supplied.\");\n    }\n\n    _;\n  }\n\n  ///@notice This function signifies that the minimum fundraising target was met.\n  ///Please note that this can only be called once.\n  function setSuccess() external onlyAdmin returns(bool) {\n    require(!targetReached, \"Access is denied.\");\n    targetReached = true;\n\n    emit TargetReached();\n  }\n\n  ///@notice This function enables the whitelisted application (internal application) to set the \n  /// ICO end date and can only be used once.\n  ///@param _date The date to set as the ICO end date.\n  function setICOEndDate(uint _date) external onlyAdmin returns(bool) {\n    require(icoEndDate == 0, \"The ICO end date was already set.\");\n    require(_date > now, \"The ICO end date must be in the future.\");\n\n    icoEndDate = _date;\n    \n    emit ICOEndDateSet(_date);\n    return true;\n  }\n\n  ///@notice Mints the below-mentioned amount of tokens allocated to rewarding the community.\n  //The tokens are available to the community rewards pool only if the fundraiser was successful.\n  function mintCommunityRewardTokens() external onlyAdmin returns(bool) {\n    require(targetReached, \"Sorry, you can't mint at this time because the target hasn't been reached yet.\");\n\n    return mintOnce(\"communityRewards\", msg.sender, ALLOCATION_FOR_COMMUNITY_REWARDS);\n  }\n\n  ///@notice Mints the below-mentioned amount of tokens allocated to the operational reserves.\n  //The tokens are only available in the reserves after 18 months of the ICO end.\n  function mintReserveTokens() external onlyAdmin returns(bool) {\n    require(targetReached, \"Sorry, you can't mint at this time because the target hasn't been reached yet.\");\n    require(icoEndDate != 0, \"You need to specify the ICO end date before minting the tokens.\");\n    require(now > (icoEndDate + 548 days), \"Access is denied, it's too early to mint the reserve tokens.\");\n\n    return mintOnce(\"operationalReserve\", msg.sender, ALLOCATION_FOR_RESERVE);\n  }\n\n  ///@notice Mints the below-mentioned amount of tokens allocated to the Accept.io founders.\n  //The tokens are only available to the founders after 2 year of the ICO end.\n  function mintTokensForTeam() external onlyAdmin returns(bool) {\n    require(targetReached, \"Sorry, you can't mint at this time because the target hasn't been reached yet.\");\n    require(icoEndDate != 0, \"You need to specify the ICO end date before minting the tokens.\");\n    require(now > (icoEndDate + 730 days), \"Access is denied, it's too early to mint team tokens.\");\n\n    return mintOnce(\"team\", msg.sender, ALLOCATION_FOR_TEAM);\n  }\n\n  ///@notice Mints the below-mentioned amount of tokens allocated to the Accept.io advisors.\n  //The tokens are only available to the advisors after 1 year of the ICO end.\n  function mintTokensForAdvisors() external onlyAdmin returns(bool) {\n    require(targetReached, \"Sorry, you can't mint at this time because the target hasn't been reached yet.\");\n    require(icoEndDate != 0, \"You need to specify the ICO end date before minting the tokens.\");\n    require(now > (icoEndDate + 365 days), \"Access is denied, it's too early to mint advisory tokens.\");\n\n    return mintOnce(\"advisors\", msg.sender, ALLOCATION_FOR_ADVISORS);\n  }\n\n  ///@notice Mints the below-mentioned amount of tokens allocated to the first Strategic Partnership category.\n  //The tokens are available to the first strategic partners only if the fundraiser was successful.\n  function mintTokensForInitialStrategicPartnerships() external onlyAdmin returns(bool) {\n    require(targetReached, \"Sorry, you can't mint at this time because the target hasn't been reached yet.\");\n\n    return mintOnce(\"initialStrategicPartners\", msg.sender, ALLOCATION_FOR_INITIAL_STRATEGIC_PARTNERSHIPS);\n  }\n\n  ///@notice Mints the below-mentioned amount of tokens allocated to the second Strategic Partnership category.\n  //The tokens are only available to the second strategic partners after 730 days of the ICO end.\n  function mintTokensForStrategicPartnerships() external onlyAdmin returns(bool) {\n    require(targetReached, \"Sorry, you can't mint at this time because the target hasn't been reached yet.\");\n    require(icoEndDate != 0, \"You need to specify the ICO end date before minting the tokens.\");\n    require(now > (icoEndDate + 730 days), \"Access is denied, it's too early to mint the partnership tokens.\");\n\n    return mintOnce(\"strategicPartners\", msg.sender, ALLOCATION_FOR_STRATEGIC_PARTNERSHIPS);\n  }\n\n  ///@notice Computes keccak256 hash of the supplied value.\n  ///@param _key The string value to compute hash from.\n  function computeHash(string _key) private pure returns(bytes32) {\n    return keccak256(abi.encodePacked(_key));\n  }\n\n  ///@notice Mints the tokens only once against the supplied key (category).\n  ///@param _key The key or the category of the allocation to mint the tokens for.\n  ///@param _to The address receiving the minted tokens.\n  ///@param _amount The amount of tokens to mint.\n  function mintOnce(string _key, address _to, uint256 _amount) private whenNotPaused whenNotMinted(_key) returns(bool) {\n    mintTokens(_to, _amount);\n    mintingList[computeHash(_key)] = true;\n    return true;\n  }\n}",
  "sourcePath": "/Users/biod/Desktop/projects/fulcrum-token/contracts/FulcrumToken.sol",
  "compiler": {
    "name": "solc",
    "version": "0.4.24+commit.e67f0147.Emscripten.clang"
  },
  "schemaVersion": "2.0.1",
  "updatedAt": "2018-11-11T17:01:16.412Z"
}